{
  "_format": "hh-sol-artifact-1",
  "contractName": "ConsensusMock",
  "sourceName": "contracts/test/ConsensusMock.sol",
  "abi": [
    {
      "constant": true,
      "inputs": [],
      "name": "getLastSnapshotTakenAtBlock",
      "outputs": [
        {
          "name": "",
          "type": "uint256"
        }
      ],
      "payable": false,
      "stateMutability": "view",
      "type": "function"
    },
    {
      "constant": true,
      "inputs": [],
      "name": "jailedValidatorsLength",
      "outputs": [
        {
          "name": "",
          "type": "uint256"
        }
      ],
      "payable": false,
      "stateMutability": "view",
      "type": "function"
    },
    {
      "constant": true,
      "inputs": [
        {
          "name": "_p",
          "type": "uint256"
        }
      ],
      "name": "pendingValidatorsAtPosition",
      "outputs": [
        {
          "name": "",
          "type": "address"
        }
      ],
      "payable": false,
      "stateMutability": "view",
      "type": "function"
    },
    {
      "constant": true,
      "inputs": [
        {
          "name": "_snapshotId",
          "type": "uint256"
        }
      ],
      "name": "getSnapshotAddresses",
      "outputs": [
        {
          "name": "",
          "type": "address[]"
        }
      ],
      "payable": false,
      "stateMutability": "view",
      "type": "function"
    },
    {
      "constant": false,
      "inputs": [
        {
          "name": "_newAddress",
          "type": "address"
        }
      ],
      "name": "setProxyStorage",
      "outputs": [],
      "payable": false,
      "stateMutability": "nonpayable",
      "type": "function"
    },
    {
      "constant": true,
      "inputs": [],
      "name": "getMinValidatorFee",
      "outputs": [
        {
          "name": "",
          "type": "uint256"
        }
      ],
      "payable": false,
      "stateMutability": "pure",
      "type": "function"
    },
    {
      "constant": true,
      "inputs": [
        {
          "name": "_address",
          "type": "address"
        }
      ],
      "name": "isJailed",
      "outputs": [
        {
          "name": "",
          "type": "bool"
        }
      ],
      "payable": false,
      "stateMutability": "view",
      "type": "function"
    },
    {
      "constant": true,
      "inputs": [],
      "name": "hasCycleEnded",
      "outputs": [
        {
          "name": "",
          "type": "bool"
        }
      ],
      "payable": false,
      "stateMutability": "view",
      "type": "function"
    },
    {
      "constant": true,
      "inputs": [
        {
          "name": "_address",
          "type": "address"
        },
        {
          "name": "_validator",
          "type": "address"
        }
      ],
      "name": "delegatedAmount",
      "outputs": [
        {
          "name": "",
          "type": "uint256"
        }
      ],
      "payable": false,
      "stateMutability": "view",
      "type": "function"
    },
    {
      "constant": true,
      "inputs": [],
      "name": "SNAPSHOTS_PER_CYCLE",
      "outputs": [
        {
          "name": "",
          "type": "uint256"
        }
      ],
      "payable": false,
      "stateMutability": "view",
      "type": "function"
    },
    {
      "constant": true,
      "inputs": [],
      "name": "pendingValidatorsLength",
      "outputs": [
        {
          "name": "",
          "type": "uint256"
        }
      ],
      "payable": false,
      "stateMutability": "view",
      "type": "function"
    },
    {
      "constant": true,
      "inputs": [],
      "name": "newValidatorSetLength",
      "outputs": [
        {
          "name": "",
          "type": "uint256"
        }
      ],
      "payable": false,
      "stateMutability": "view",
      "type": "function"
    },
    {
      "constant": false,
      "inputs": [
        {
          "name": "_currentValidatorsLengthMock",
          "type": "uint256"
        }
      ],
      "name": "setCurrentValidatorsLengthMock",
      "outputs": [],
      "payable": false,
      "stateMutability": "nonpayable",
      "type": "function"
    },
    {
      "constant": true,
      "inputs": [],
      "name": "DECIMALS",
      "outputs": [
        {
          "name": "",
          "type": "uint256"
        }
      ],
      "payable": false,
      "stateMutability": "view",
      "type": "function"
    },
    {
      "constant": false,
      "inputs": [
        {
          "name": "_amount",
          "type": "uint256"
        }
      ],
      "name": "withdraw",
      "outputs": [],
      "payable": false,
      "stateMutability": "nonpayable",
      "type": "function"
    },
    {
      "constant": true,
      "inputs": [],
      "name": "isInitialized",
      "outputs": [
        {
          "name": "",
          "type": "bool"
        }
      ],
      "payable": false,
      "stateMutability": "view",
      "type": "function"
    },
    {
      "constant": false,
      "inputs": [],
      "name": "stake",
      "outputs": [],
      "payable": true,
      "stateMutability": "payable",
      "type": "function"
    },
    {
      "constant": true,
      "inputs": [],
      "name": "currentValidatorsLength",
      "outputs": [
        {
          "name": "",
          "type": "uint256"
        }
      ],
      "payable": false,
      "stateMutability": "view",
      "type": "function"
    },
    {
      "constant": false,
      "inputs": [
        {
          "name": "_val",
          "type": "address"
        },
        {
          "name": "counter",
          "type": "uint256"
        }
      ],
      "name": "setBlockCounterMock",
      "outputs": [],
      "payable": false,
      "stateMutability": "nonpayable",
      "type": "function"
    },
    {
      "constant": false,
      "inputs": [
        {
          "name": "_status",
          "type": "bool"
        }
      ],
      "name": "setShouldEmitInitiateChangeMock",
      "outputs": [],
      "payable": false,
      "stateMutability": "nonpayable",
      "type": "function"
    },
    {
      "constant": false,
      "inputs": [
        {
          "name": "_amount",
          "type": "uint256"
        }
      ],
      "name": "setValidatorFee",
      "outputs": [],
      "payable": false,
      "stateMutability": "nonpayable",
      "type": "function"
    },
    {
      "constant": true,
      "inputs": [],
      "name": "getMinStake",
      "outputs": [
        {
          "name": "",
          "type": "uint256"
        }
      ],
      "payable": false,
      "stateMutability": "pure",
      "type": "function"
    },
    {
      "constant": true,
      "inputs": [
        {
          "name": "_p",
          "type": "uint256"
        }
      ],
      "name": "currentValidatorsAtPosition",
      "outputs": [
        {
          "name": "",
          "type": "address"
        }
      ],
      "payable": false,
      "stateMutability": "view",
      "type": "function"
    },
    {
      "constant": false,
      "inputs": [
        {
          "name": "_validator",
          "type": "address"
        }
      ],
      "name": "delegate",
      "outputs": [],
      "payable": true,
      "stateMutability": "payable",
      "type": "function"
    },
    {
      "constant": true,
      "inputs": [],
      "name": "newValidatorSet",
      "outputs": [
        {
          "name": "",
          "type": "address[]"
        }
      ],
      "payable": false,
      "stateMutability": "view",
      "type": "function"
    },
    {
      "constant": true,
      "inputs": [],
      "name": "jailedValidators",
      "outputs": [
        {
          "name": "",
          "type": "address[]"
        }
      ],
      "payable": false,
      "stateMutability": "view",
      "type": "function"
    },
    {
      "constant": true,
      "inputs": [
        {
          "name": "_from",
          "type": "uint256"
        },
        {
          "name": "_to",
          "type": "uint256"
        }
      ],
      "name": "getRandom",
      "outputs": [
        {
          "name": "",
          "type": "uint256"
        }
      ],
      "payable": false,
      "stateMutability": "view",
      "type": "function"
    },
    {
      "constant": true,
      "inputs": [
        {
          "name": "_validator",
          "type": "address"
        },
        {
          "name": "_rewardAmount",
          "type": "uint256"
        }
      ],
      "name": "getDelegatorsForRewardDistribution",
      "outputs": [
        {
          "name": "",
          "type": "address[]"
        },
        {
          "name": "",
          "type": "uint256[]"
        }
      ],
      "payable": false,
      "stateMutability": "view",
      "type": "function"
    },
    {
      "constant": true,
      "inputs": [],
      "name": "STRIKE_RESET",
      "outputs": [
        {
          "name": "",
          "type": "uint256"
        }
      ],
      "payable": false,
      "stateMutability": "view",
      "type": "function"
    },
    {
      "constant": false,
      "inputs": [],
      "name": "maintenance",
      "outputs": [],
      "payable": false,
      "stateMutability": "nonpayable",
      "type": "function"
    },
    {
      "constant": false,
      "inputs": [
        {
          "name": "_amount",
          "type": "uint256"
        }
      ],
      "name": "setValidatorFeeMock",
      "outputs": [],
      "payable": false,
      "stateMutability": "nonpayable",
      "type": "function"
    },
    {
      "constant": false,
      "inputs": [],
      "name": "unJail",
      "outputs": [],
      "payable": false,
      "stateMutability": "nonpayable",
      "type": "function"
    },
    {
      "constant": true,
      "inputs": [],
      "name": "MAX_VALIDATORS",
      "outputs": [
        {
          "name": "",
          "type": "uint256"
        }
      ],
      "payable": false,
      "stateMutability": "view",
      "type": "function"
    },
    {
      "constant": true,
      "inputs": [],
      "name": "VALIDATOR_PRODUCTIVITY_BP",
      "outputs": [
        {
          "name": "",
          "type": "uint256"
        }
      ],
      "payable": false,
      "stateMutability": "view",
      "type": "function"
    },
    {
      "constant": false,
      "inputs": [],
      "name": "finalizeChange",
      "outputs": [],
      "payable": false,
      "stateMutability": "nonpayable",
      "type": "function"
    },
    {
      "constant": true,
      "inputs": [],
      "name": "getMaxValidators",
      "outputs": [
        {
          "name": "",
          "type": "uint256"
        }
      ],
      "payable": false,
      "stateMutability": "pure",
      "type": "function"
    },
    {
      "constant": false,
      "inputs": [
        {
          "name": "_newAddress",
          "type": "address"
        }
      ],
      "name": "setSystemAddressMock",
      "outputs": [],
      "payable": false,
      "stateMutability": "nonpayable",
      "type": "function"
    },
    {
      "constant": true,
      "inputs": [
        {
          "name": "_validator",
          "type": "address"
        }
      ],
      "name": "getStrikes",
      "outputs": [
        {
          "name": "",
          "type": "uint256"
        }
      ],
      "payable": false,
      "stateMutability": "view",
      "type": "function"
    },
    {
      "constant": true,
      "inputs": [
        {
          "name": "_validator",
          "type": "address"
        }
      ],
      "name": "blockCounter",
      "outputs": [
        {
          "name": "",
          "type": "uint256"
        }
      ],
      "payable": false,
      "stateMutability": "view",
      "type": "function"
    },
    {
      "constant": true,
      "inputs": [],
      "name": "CYCLE_DURATION_BLOCKS",
      "outputs": [
        {
          "name": "",
          "type": "uint256"
        }
      ],
      "payable": false,
      "stateMutability": "view",
      "type": "function"
    },
    {
      "constant": false,
      "inputs": [
        {
          "name": "_validator",
          "type": "address"
        }
      ],
      "name": "cycle",
      "outputs": [],
      "payable": false,
      "stateMutability": "nonpayable",
      "type": "function"
    },
    {
      "constant": true,
      "inputs": [],
      "name": "MAX_STRIKE_COUNT",
      "outputs": [
        {
          "name": "",
          "type": "uint256"
        }
      ],
      "payable": false,
      "stateMutability": "view",
      "type": "function"
    },
    {
      "constant": true,
      "inputs": [],
      "name": "getSnapshotsPerCycle",
      "outputs": [
        {
          "name": "",
          "type": "uint256"
        }
      ],
      "payable": false,
      "stateMutability": "pure",
      "type": "function"
    },
    {
      "constant": true,
      "inputs": [],
      "name": "requiredSignatures",
      "outputs": [
        {
          "name": "",
          "type": "uint256"
        }
      ],
      "payable": false,
      "stateMutability": "view",
      "type": "function"
    },
    {
      "constant": true,
      "inputs": [
        {
          "name": "_validator",
          "type": "address"
        }
      ],
      "name": "delegators",
      "outputs": [
        {
          "name": "",
          "type": "address[]"
        }
      ],
      "payable": false,
      "stateMutability": "view",
      "type": "function"
    },
    {
      "constant": true,
      "inputs": [],
      "name": "isFinalized",
      "outputs": [
        {
          "name": "",
          "type": "bool"
        }
      ],
      "payable": false,
      "stateMutability": "view",
      "type": "function"
    },
    {
      "constant": true,
      "inputs": [
        {
          "name": "_p",
          "type": "uint256"
        }
      ],
      "name": "jailedValidatorsAtPosition",
      "outputs": [
        {
          "name": "",
          "type": "address"
        }
      ],
      "payable": false,
      "stateMutability": "view",
      "type": "function"
    },
    {
      "constant": true,
      "inputs": [],
      "name": "getSystemAddress",
      "outputs": [
        {
          "name": "",
          "type": "address"
        }
      ],
      "payable": false,
      "stateMutability": "view",
      "type": "function"
    },
    {
      "constant": true,
      "inputs": [],
      "name": "DEFAULT_VALIDATOR_FEE",
      "outputs": [
        {
          "name": "",
          "type": "uint256"
        }
      ],
      "payable": false,
      "stateMutability": "view",
      "type": "function"
    },
    {
      "constant": true,
      "inputs": [],
      "name": "getCurrentCycleStartBlock",
      "outputs": [
        {
          "name": "",
          "type": "uint256"
        }
      ],
      "payable": false,
      "stateMutability": "view",
      "type": "function"
    },
    {
      "constant": false,
      "inputs": [],
      "name": "emitInitiateChange",
      "outputs": [],
      "payable": false,
      "stateMutability": "nonpayable",
      "type": "function"
    },
    {
      "constant": true,
      "inputs": [],
      "name": "totalStakeAmount",
      "outputs": [
        {
          "name": "",
          "type": "uint256"
        }
      ],
      "payable": false,
      "stateMutability": "view",
      "type": "function"
    },
    {
      "constant": true,
      "inputs": [
        {
          "name": "_validator",
          "type": "address"
        }
      ],
      "name": "validatorFee",
      "outputs": [
        {
          "name": "",
          "type": "uint256"
        }
      ],
      "payable": false,
      "stateMutability": "view",
      "type": "function"
    },
    {
      "constant": false,
      "inputs": [
        {
          "name": "_newSet",
          "type": "address[]"
        }
      ],
      "name": "setNewValidatorSetMock",
      "outputs": [],
      "payable": false,
      "stateMutability": "nonpayable",
      "type": "function"
    },
    {
      "constant": true,
      "inputs": [
        {
          "name": "_validator",
          "type": "address"
        },
        {
          "name": "_address",
          "type": "address"
        }
      ],
      "name": "isDelegator",
      "outputs": [
        {
          "name": "",
          "type": "bool"
        }
      ],
      "payable": false,
      "stateMutability": "view",
      "type": "function"
    },
    {
      "constant": true,
      "inputs": [],
      "name": "currentValidators",
      "outputs": [
        {
          "name": "",
          "type": "address[]"
        }
      ],
      "payable": false,
      "stateMutability": "view",
      "type": "function"
    },
    {
      "constant": true,
      "inputs": [],
      "name": "getCycleDurationBlocks",
      "outputs": [
        {
          "name": "",
          "type": "uint256"
        }
      ],
      "payable": false,
      "stateMutability": "pure",
      "type": "function"
    },
    {
      "constant": true,
      "inputs": [],
      "name": "pendingValidators",
      "outputs": [
        {
          "name": "",
          "type": "address[]"
        }
      ],
      "payable": false,
      "stateMutability": "view",
      "type": "function"
    },
    {
      "constant": true,
      "inputs": [],
      "name": "getCurrentCycleEndBlock",
      "outputs": [
        {
          "name": "",
          "type": "uint256"
        }
      ],
      "payable": false,
      "stateMutability": "view",
      "type": "function"
    },
    {
      "constant": true,
      "inputs": [],
      "name": "getValidators",
      "outputs": [
        {
          "name": "",
          "type": "address[]"
        }
      ],
      "payable": false,
      "stateMutability": "view",
      "type": "function"
    },
    {
      "constant": true,
      "inputs": [
        {
          "name": "_address",
          "type": "address"
        }
      ],
      "name": "stakeAmount",
      "outputs": [
        {
          "name": "",
          "type": "uint256"
        }
      ],
      "payable": false,
      "stateMutability": "view",
      "type": "function"
    },
    {
      "constant": false,
      "inputs": [
        {
          "name": "_initialValidator",
          "type": "address"
        }
      ],
      "name": "initialize",
      "outputs": [],
      "payable": false,
      "stateMutability": "nonpayable",
      "type": "function"
    },
    {
      "constant": true,
      "inputs": [],
      "name": "MAX_STAKE",
      "outputs": [
        {
          "name": "",
          "type": "uint256"
        }
      ],
      "payable": false,
      "stateMutability": "view",
      "type": "function"
    },
    {
      "constant": true,
      "inputs": [],
      "name": "MIN_STAKE",
      "outputs": [
        {
          "name": "",
          "type": "uint256"
        }
      ],
      "payable": false,
      "stateMutability": "view",
      "type": "function"
    },
    {
      "constant": true,
      "inputs": [
        {
          "name": "_validator",
          "type": "address"
        }
      ],
      "name": "getStrikeReset",
      "outputs": [
        {
          "name": "",
          "type": "uint256"
        }
      ],
      "payable": false,
      "stateMutability": "view",
      "type": "function"
    },
    {
      "constant": false,
      "inputs": [
        {
          "name": "_status",
          "type": "bool"
        }
      ],
      "name": "setFinalizedMock",
      "outputs": [],
      "payable": false,
      "stateMutability": "nonpayable",
      "type": "function"
    },
    {
      "constant": true,
      "inputs": [
        {
          "name": "_validator",
          "type": "address"
        }
      ],
      "name": "delegatorsLength",
      "outputs": [
        {
          "name": "",
          "type": "uint256"
        }
      ],
      "payable": false,
      "stateMutability": "view",
      "type": "function"
    },
    {
      "constant": false,
      "inputs": [
        {
          "name": "addr",
          "type": "address"
        },
        {
          "name": "amount",
          "type": "uint256"
        }
      ],
      "name": "addStakeAmountMock",
      "outputs": [],
      "payable": false,
      "stateMutability": "nonpayable",
      "type": "function"
    },
    {
      "constant": true,
      "inputs": [],
      "name": "getNextSnapshotId",
      "outputs": [
        {
          "name": "",
          "type": "uint256"
        }
      ],
      "payable": false,
      "stateMutability": "view",
      "type": "function"
    },
    {
      "constant": true,
      "inputs": [
        {
          "name": "_validator",
          "type": "address"
        },
        {
          "name": "_p",
          "type": "uint256"
        }
      ],
      "name": "delegatorsAtPosition",
      "outputs": [
        {
          "name": "",
          "type": "address"
        }
      ],
      "payable": false,
      "stateMutability": "view",
      "type": "function"
    },
    {
      "constant": true,
      "inputs": [],
      "name": "getProxyStorage",
      "outputs": [
        {
          "name": "",
          "type": "address"
        }
      ],
      "payable": false,
      "stateMutability": "view",
      "type": "function"
    },
    {
      "constant": true,
      "inputs": [
        {
          "name": "_validator",
          "type": "address"
        }
      ],
      "name": "getReleaseBlock",
      "outputs": [
        {
          "name": "",
          "type": "uint256"
        }
      ],
      "payable": false,
      "stateMutability": "view",
      "type": "function"
    },
    {
      "constant": true,
      "inputs": [],
      "name": "shouldEmitInitiateChange",
      "outputs": [
        {
          "name": "",
          "type": "bool"
        }
      ],
      "payable": false,
      "stateMutability": "view",
      "type": "function"
    },
    {
      "constant": false,
      "inputs": [
        {
          "name": "_newSet",
          "type": "address[]"
        }
      ],
      "name": "setStakeAmountMockGroup",
      "outputs": [],
      "payable": false,
      "stateMutability": "nonpayable",
      "type": "function"
    },
    {
      "constant": false,
      "inputs": [
        {
          "name": "_validator",
          "type": "address"
        },
        {
          "name": "_amount",
          "type": "uint256"
        }
      ],
      "name": "withdraw",
      "outputs": [],
      "payable": false,
      "stateMutability": "nonpayable",
      "type": "function"
    },
    {
      "constant": true,
      "inputs": [
        {
          "name": "_address",
          "type": "address"
        }
      ],
      "name": "isValidator",
      "outputs": [
        {
          "name": "",
          "type": "bool"
        }
      ],
      "payable": false,
      "stateMutability": "view",
      "type": "function"
    },
    {
      "constant": true,
      "inputs": [
        {
          "name": "_address",
          "type": "address"
        }
      ],
      "name": "isPendingValidator",
      "outputs": [
        {
          "name": "",
          "type": "bool"
        }
      ],
      "payable": false,
      "stateMutability": "view",
      "type": "function"
    },
    {
      "constant": false,
      "inputs": [
        {
          "name": "_totalStake",
          "type": "uint256"
        }
      ],
      "name": "setTotalStakeAmountMock",
      "outputs": [],
      "payable": false,
      "stateMutability": "nonpayable",
      "type": "function"
    },
    {
      "constant": true,
      "inputs": [],
      "name": "getMaxStake",
      "outputs": [
        {
          "name": "",
          "type": "uint256"
        }
      ],
      "payable": false,
      "stateMutability": "pure",
      "type": "function"
    },
    {
      "payable": true,
      "stateMutability": "payable",
      "type": "fallback"
    },
    {
      "anonymous": false,
      "inputs": [
        {
          "indexed": false,
          "name": "newSet",
          "type": "address[]"
        }
      ],
      "name": "ChangeFinalized",
      "type": "event"
    },
    {
      "anonymous": false,
      "inputs": [],
      "name": "ShouldEmitInitiateChange",
      "type": "event"
    },
    {
      "anonymous": false,
      "inputs": [
        {
          "indexed": true,
          "name": "parentHash",
          "type": "bytes32"
        },
        {
          "indexed": false,
          "name": "newSet",
          "type": "address[]"
        }
      ],
      "name": "InitiateChange",
      "type": "event"
    }
  ],
  "bytecode": "0x60806040526000600f5534801561001557600080fd5b506154df806100256000396000f3006080604052600436106103815763ffffffff60e060020a6000350416630300fc35811461038e57806308c90076146103b55780630fe9d28e146103ca5780631043ca28146103fe578063108552691461046657806310f606e71461048757806314bfb5271461049c5780631ffbaf68146104d157806321429e60146104e6578063256f91931461050d5780632a807f15146105225780632bec36d2146105375780632c4438511461054c5780632e0f2625146105645780632e1a7d4d14610579578063392e53cd146105915780633a4b66f1146105a657806340c9cdeb146105ae578063416fab2f146105c3578063532e3aaa146105e757806355460f811461060157806356a3b5fa1461061957806357aeefc51461062e5780635c19a95c146106465780635ccee1de1461065a578063651d8c221461066f578063655b08eb146106845780636a28f12f1461069f5780636bdf1d5a1461075c5780636c376cc5146107715780636d6f7e4c146107865780636eae5b111461079e578063714897df1461075c57806372e81e32146107b357806375286211146107c857806376bd510f146107dd578063770c6320146107f25780637b1e52a5146108135780637d8f7a61146108345780637e2bf1201461085557806385cd84641461086a5780638615b1711461088b5780638bbc1e6b146108a05780638d068043146108b55780638d23fc61146108ca5780638d4e4083146108eb5780638da873f8146109005780638dd3848f1461091857806392b391f31461092d578063932781d61461094257806393b4e25e1461095757806394409a561461096c5780639f77dc3014610981578063a0535deb146109a2578063a0e11929146109f7578063a2cde60914610a1e578063a652492314610a33578063a82f255b14610a48578063af29518114610a5d578063b7ab4db514610a72578063bf13526714610a87578063c4d66de814610aa8578063c98517c514610ac9578063cb1c2b5c14610ade578063d2166ce914610af3578063d8da60b114610b14578063ddb3f48714610b2e578063e552fec414610b4f578063e9fbe9d414610b73578063eb431b6a14610b88578063ec15a5e614610bac578063ee19a7fc14610bc1578063ef7b6d8914610be2578063f0a7d43d14610bf7578063f3fef3a314610c4c578063facd743b14610c70578063fb64aac114610c91578063fe03d2e514610cb2578063fe35505b14610cca575b61038c333433610cdf565b005b34801561039a57600080fd5b506103a3610da7565b60408051918252519081900360200190f35b3480156103c157600080fd5b506103a3610e5d565b3480156103d657600080fd5b506103e2600435610ebf565b60408051600160a060020a039092168252519081900360200190f35b34801561040a57600080fd5b50610416600435610f86565b60408051602080825283518183015283519192839290830191858101910280838360005b8381101561045257818101518382015260200161043a565b505050509050019250505060405180910390f35b34801561047257600080fd5b5061038c600160a060020a03600435166110c1565b34801561049357600080fd5b506103a36113e0565b3480156104a857600080fd5b506104bd600160a060020a03600435166113ec565b604080519115158252519081900360200190f35b3480156104dd57600080fd5b506104bd61143d565b3480156104f257600080fd5b506103a3600160a060020a036004358116906024351661144c565b34801561051957600080fd5b506103a3611510565b34801561052e57600080fd5b506103a3611515565b34801561054357600080fd5b506103a3611577565b34801561055857600080fd5b5061038c6004356115eb565b34801561057057600080fd5b506103a36115f0565b34801561058557600080fd5b5061038c6004356115fc565b34801561059d57600080fd5b506104bd61160a565b61038c6116c2565b3480156105ba57600080fd5b506103a36116cf565b3480156105cf57600080fd5b5061038c600160a060020a03600435166024356116eb565b3480156105f357600080fd5b5061038c60043515156117af565b34801561060d57600080fd5b5061038c600435611822565b34801561062557600080fd5b506103a3611869565b34801561063a57600080fd5b506103e2600435611877565b61038c600160a060020a03600435166118d9565b34801561066657600080fd5b506104166118e4565b34801561067b57600080fd5b506104166119ed565b34801561069057600080fd5b506103a3600435602435611a4f565b3480156106ab57600080fd5b506106c3600160a060020a0360043516602435611a62565b604051808060200180602001838103835285818151815260200191508051906020019060200280838360005b838110156107075781810151838201526020016106ef565b50505050905001838103825284818151815260200191508051906020019060200280838360005b8381101561074657818101518382015260200161072e565b5050505090500194505050505060405180910390f35b34801561076857600080fd5b506103a3611b60565b34801561077d57600080fd5b5061038c611b65565b34801561079257600080fd5b5061038c600435611b95565b3480156107aa57600080fd5b5061038c611baa565b3480156107bf57600080fd5b506103a3611be3565b3480156107d457600080fd5b5061038c611be9565b3480156107e957600080fd5b506103a3611d62565b3480156107fe57600080fd5b5061038c600160a060020a0360043516611d67565b34801561081f57600080fd5b506103a3600160a060020a0360043516611efb565b34801561084057600080fd5b506103a3600160a060020a0360043516611fbf565b34801561086157600080fd5b506103a3612041565b34801561087657600080fd5b5061038c600160a060020a0360043516612047565b34801561089757600080fd5b506103a3612367565b3480156108ac57600080fd5b506103a361236c565b3480156108c157600080fd5b506103a3612371565b3480156108d657600080fd5b50610416600160a060020a0360043516612391565b3480156108f757600080fd5b506104bd612413565b34801561090c57600080fd5b506103e2600435612487565b34801561092457600080fd5b506103e26124e9565b34801561093957600080fd5b506103a36125a7565b34801561094e57600080fd5b506103a36125b3565b34801561096357600080fd5b5061038c612627565b34801561097857600080fd5b506103a36126ea565b34801561098d57600080fd5b506103a3600160a060020a036004351661274c565b3480156109ae57600080fd5b506040805160206004803580820135838102808601850190965280855261038c953695939460249493850192918291850190849080828437509497506127e09650505050505050565b348015610a0357600080fd5b506104bd600160a060020a03600435811690602435166128a2565b348015610a2a57600080fd5b506104166128f6565b348015610a3f57600080fd5b506103a3612958565b348015610a5457600080fd5b5061041661295d565b348015610a6957600080fd5b506103a36129bf565b348015610a7e57600080fd5b50610416612a33565b348015610a9357600080fd5b506103a3600160a060020a0360043516612a3d565b348015610ab457600080fd5b5061038c600160a060020a0360043516612abf565b348015610ad557600080fd5b506103a3612bf5565b348015610aea57600080fd5b506103a3612c04565b348015610aff57600080fd5b506103a3600160a060020a0360043516612c12565b348015610b2057600080fd5b5061038c6004351515612c94565b348015610b3a57600080fd5b506103a3600160a060020a0360043516612d07565b348015610b5b57600080fd5b5061038c600160a060020a0360043516602435612d89565b348015610b7f57600080fd5b506103a3612d93565b348015610b9457600080fd5b506103e2600160a060020a0360043516602435612e07565b348015610bb857600080fd5b506103e2612eef565b348015610bcd57600080fd5b506103a3600160a060020a0360043516612f63565b348015610bee57600080fd5b506104bd612ff7565b348015610c0357600080fd5b506040805160206004803580820135838102808601850190965280855261038c9536959394602494938501929182918501908490808284375094975061306b9650505050505050565b348015610c5857600080fd5b5061038c600160a060020a03600435166024356130a8565b348015610c7c57600080fd5b506104bd600160a060020a03600435166130b3565b348015610c9d57600080fd5b506104bd600160a060020a03600435166130f9565b348015610cbe57600080fd5b5061038c60043561313f565b348015610cd657600080fd5b506103a3613148565b600160a060020a0383161515610cf457600080fd5b811515610d0057600080fd5b600160a060020a0381161515610d1557600080fd5b610d20838284613156565b610d2a8183613311565b610d32613148565b610d3b82612a3d565b1115610d4657600080fd5b610d4e611869565b610d5782612a3d565b10158015610d6b5750610d69816130f9565b155b15610d8b57610d7981613415565b610d8b8167016345785d8a00006134f8565b610d94816130b3565b15610da257610da28261358b565b505050565b60006002600060405160200180807f6c617374536e617073686f7454616b656e4174426c6f636b000000000000000081525060180190506040516020818303038152906040526040518082805190602001908083835b60208310610e1c5780518252601f199092019160209182019101610dfd565b51815160209384036101000a600019018019909216911617905260408051929094018290039091208652850195909552929092016000205493505050505b90565b6000600a60006040516020018080600080516020615374833981519152815250601001905060405160208183030381529060405260405180828051906020019080838360208310610e1c5780518252601f199092019160209182019101610dfd565b6000600a600060405160200180806000805160206153d483398151915281525060110190506040516020818303038152906040526040518082805190602001908083835b60208310610f225780518252601f199092019160209182019101610f03565b51815160209384036101000a60001901801990921691161790526040805192909401829003909120865285019590955292909201600020805490935085925082109050610f6b57fe5b600091825260209091200154600160a060020a031692915050565b6060600a60008360405160200180807f736e617073686f74000000000000000000000000000000000000000000000000815250600801828152602001807f61646472657373657300000000000000000000000000000000000000000000008152506009019150506040516020818303038152906040526040518082805190602001908083835b6020831061102b5780518252601f19909201916020918201910161100c565b51815160209384036101000a6000190180199092169116179052604080519290940182900390912086528581019690965250928301600020805484518187028101870190955280855293949093925084019050828280156110b557602002820191906000526020600020905b8154600160a060020a03168152600190910190602001808311611097575b50505050509050919050565b6004600060405160200180807f6f776e657200000000000000000000000000000000000000000000000000000081525060050190506040516020818303038152906040526040518082805190602001908083835b602083106111345780518252601f199092019160209182019101611115565b51815160209384036101000a6000190180199092169116179052604080519290940182900390912086528501959095529290920160002054600160a060020a03163314925061118591505057600080fd5b600160a060020a038116151561119a57600080fd5b6006600060405160200180807f77617350726f787953746f72616765536574000000000000000000000000000081525060120190506040516020818303038152906040526040518082805190602001908083835b6020831061120d5780518252601f1990920191602091820191016111ee565b51815160209384036101000a600019018019909216911617905260408051929094018290039091208652850195909552929092016000205460ff1615925061125791505057600080fd5b806004600060405160200180807f70726f787953746f726167650000000000000000000000000000000000000000815250600c0190506040516020818303038152906040526040518082805190602001908083835b602083106112cb5780518252601f1990920191602091820191016112ac565b51815160209384036101000a600019018019909216911617905260408051929094018290039091208652858101969096525092830160009081208054600160a060020a031916600160a060020a039790971696909617909555505080517f77617350726f787953746f7261676553657400000000000000000000000000008184015281516012818303018152603290910191829052805160019460069490939182918401908083835b602083106113935780518252601f199092019160209182019101611374565b51815160209384036101000a60001901801990921691161790526040805192909401829003909120865285019590955292909201600020805460ff19169415159490941790935550505050565b67016345785d8a000090565b6000805b6113f8610e5d565b8110156114325761140881612487565b600160a060020a031683600160a060020a0316141561142a5760019150611437565b6001016113f0565b600091505b50919050565b6000611447613691565b905090565b60408051600080516020615474833981519152602080830191909152606060020a600160a060020a038087168202602f85015285160260438301528251603781840301815260579092019283905281516000936002938593909282918401908083835b602083106114ce5780518252601f1990920191602091820191016114af565b51815160209384036101000a60001901801990921691161790526040805192909401829003909120865285019590955292909201600020549695505050505050565b600081565b6000600a600060405160200180806000805160206153d4833981519152815250601101905060405160208183030381529060405260405180828051906020019080838360208310610e1c5780518252601f199092019160209182019101610dfd565b6000600a600060405160200180807f6e657756616c696461746f725365740000000000000000000000000000000000815250600f01905060405160208183030381529060405260405180828051906020019080838360208310610e1c5780518252601f199092019160209182019101610dfd565b600f55565b670de0b6b3a764000081565b6116073382336136a3565b50565b60006006600060405160200180807f6973496e697469616c697a656400000000000000000000000000000000000000815250600d0190506040516020818303038152906040526040518082805190602001908083835b6020831061167f5780518252601f199092019160209182019101611660565b51815160209384036101000a600019018019909216911617905260408051929094018290039091208652850195909552929092016000205460ff16949350505050565b6116cd333433610cdf565b565b600f54600090156116e35750600f54610e5a565b6114476137bd565b80600260008460405160200180806000805160206153b4833981519152815250600c0182600160a060020a0316600160a060020a0316606060020a0281526014019150506040516020818303038152906040526040518082805190602001908083835b6020831061176d5780518252601f19909201916020918201910161174e565b51815160209384036101000a60001901801990921691161790526040805192909401829003909120865285019590955292909201600020939093555050505050565b806006600060405160200180807f73686f756c64456d6974496e6974696174654368616e676500000000000000008152506018019050604051602081830303815290604052604051808280519060200190808383602083106113935780518252601f199092019160209182019101611374565b61182b336130b3565b151561183657600080fd5b670de0b6b3a764000081111561184b57600080fd5b6118536113e0565b81101561185f57600080fd5b61160733826134f8565b69021e19e0c9bab240000090565b6000600a60006040516020018080600080516020615454833981519152815250601101905060405160208183030381529060405260405180828051906020019080838360208310610f225780518252601f199092019160209182019101610f03565b611607333483610cdf565b6060600a600060405160200180807f6e657756616c696461746f725365740000000000000000000000000000000000815250600f0190506040516020818303038152906040526040518082805190602001908083835b602083106119595780518252601f19909201916020918201910161193a565b51815160209384036101000a6000190180199092169116179052604080519290940182900390912086528581019690965250928301600020805484518187028101870190955280855293949093925084019050828280156119e357602002820191906000526020600020905b8154600160a060020a031681526001909101906020018083116119c5575b5050505050905090565b6060600a600060405160200180806000805160206153748339815191528152506010019050604051602081830303815290604052604051808280519060200190808383602083106119595780518252601f19909201916020918201910161193a565b6000611a5b838361381f565b9392505050565b6060806060806000806000611a7689612391565b94508451604051908082528060200260200182016040528015611aa3578160200160208202803883390190505b509350611abf611ab1611869565b611aba8b612a3d565b61384c565b92505b8451821015611b5157611ade611ad88a84612e07565b8a61144c565b9050611b2e670de0b6b3a7640000611b16611af88c61274c565b670de0b6b3a764000003611b2287611b168e8863ffffffff61386316565b9063ffffffff61389116565b9063ffffffff61386316565b8483815181101515611b3c57fe5b60209081029091010152600190910190611ac2565b50929791965090945050505050565b603281565b611b6e336130b3565b1515611b7957600080fd5b611b82336113ec565b15611b8c57600080fd5b6116cd336138b4565b670de0b6b3a764000081111561185f57600080fd5b611bb3336113ec565b1515611bbe57600080fd5b611bc66129bf565b611bcf33612f63565b1115611bda57600080fd5b6116cd336138c6565b610bb881565b6004600060405160200180807f53595354454d5f41444452455353000000000000000000000000000000000000815250600e0190506040516020818303038152906040526040518082805190602001908083835b60208310611c5c5780518252601f199092019160209182019101611c3d565b51815160209384036101000a6000190180199092169116179052604080519290940182900390912086528501959095529290920160002054600160a060020a031633149250611cad91505057600080fd5b611cb5612413565b15611cbf57600080fd5b6000611cc9611577565b1115611d5857611cdf611cda6118e4565b613902565b7f8564cd629b15f47dc310d45bcbfc9bcf5420b0d51bf0659a16c67f91d2763253611d086128f6565b60408051602080825283518183015283519192839290830191858101910280838360005b83811015611d44578181015183820152602001611d2c565b505050509050019250505060405180910390a15b6116cd6001612c94565b603290565b6004600060405160200180807f6f776e657200000000000000000000000000000000000000000000000000000081525060050190506040516020818303038152906040526040518082805190602001908083835b60208310611dda5780518252601f199092019160209182019101611dbb565b51815160209384036101000a6000190180199092169116179052604080519290940182900390912086528501959095529290920160002054600160a060020a031633149250611e2b91505057600080fd5b806004600060405160200180807f53595354454d5f41444452455353000000000000000000000000000000000000815250600e0190506040516020818303038152906040526040518082805190602001908083835b60208310611e9f5780518252601f199092019160209182019101611e80565b51815160209384036101000a600019018019909216911617905260408051929094018290039091208652850195909552929092016000208054600160a060020a031916600160a060020a03959095169490941790935550505050565b600060026000836040516020018080600080516020615494833981519152815250600b0182600160a060020a0316600160a060020a0316606060020a0281526014019150506040516020818303038152906040526040518082805190602001908083835b60208310611f7e5780518252601f199092019160209182019101611f5f565b51815160209384036101000a600019018019909216911617905260408051929094018290039091208652850195909552929092016000205495945050505050565b6000600260008360405160200180806000805160206153b4833981519152815250600c0182600160a060020a0316600160a060020a0316606060020a02815260140191505060405160208183030381529060405260405180828051906020019080838360208310611f7e5780518252601f199092019160209182019101611f5f565b612d0081565b6060612051612eef565b600160a060020a031663f89d40866040518163ffffffff1660e060020a028152600401602060405180830381600087803b15801561208e57600080fd5b505af11580156120a2573d6000803e3d6000fd5b505050506040513d60208110156120b857600080fd5b5051600160a060020a031633146120ce57600080fd5b6120d782613a55565b6120df613691565b15612363576120ec612eef565b600160a060020a0316631986d3766040518163ffffffff1660e060020a028152600401602060405180830381600087803b15801561212957600080fd5b505af115801561213d573d6000803e3d6000fd5b505050506040513d602081101561215357600080fd5b5051600160a060020a031663bbac62c861216b6128f6565b6040518263ffffffff1660e060020a0281526004018080602001828103825283818151815260200191508051906020019060200280838360005b838110156121bd5781810151838201526020016121a5565b5050505090500192505050600060405180830381600087803b1580156121e257600080fd5b505af11580156121f6573d6000803e3d6000fd5b50505050612202613b85565b61221261220d6128f6565b613cf6565b61221a61295d565b905060008151111561222f5761222f816127e0565b6000612239611577565b111561227d576122496000612c94565b61225360016117af565b6040517fad8a61077dff62d25ea1bf7cf1af88e1b48075c3d497d494ac9b129b73b0d37c90600090a15b612285612eef565b600160a060020a031663f89d40866040518163ffffffff1660e060020a028152600401602060405180830381600087803b1580156122c257600080fd5b505af11580156122d6573d6000803e3d6000fd5b505050506040513d60208110156122ec57600080fd5b5051604080517fb1f0c8e10000000000000000000000000000000000000000000000000000000081529051600160a060020a039092169163b1f0c8e19160048082019260009290919082900301818387803b15801561234a57600080fd5b505af115801561235e573d6000803e3d6000fd5b505050505b5050565b600581565b600a90565b600061144760016123856002611b166116cf565b9063ffffffff613ddb16565b6060600a6000836040516020018080600080516020615394833981519152815250600a0182600160a060020a0316600160a060020a0316606060020a0281526014019150506040516020818303038152906040526040518082805190602001908083836020831061102b5780518252601f19909201916020918201910161100c565b60006006600060405160200180807f697346696e616c697a6564000000000000000000000000000000000000000000815250600b0190506040516020818303038152906040526040518082805190602001908083836020831061167f5780518252601f199092019160209182019101611660565b6000600a60006040516020018080600080516020615374833981519152815250601001905060405160208183030381529060405260405180828051906020019080838360208310610f225780518252601f199092019160209182019101610f03565b60006004600060405160200180807f53595354454d5f41444452455353000000000000000000000000000000000000815250600e0190506040516020818303038152906040526040518082805190602001908083835b6020831061255e5780518252601f19909201916020918201910161253f565b51815160209384036101000a6000190180199092169116179052604080519290940182900390912086528501959095529290920160002054600160a060020a0316949350505050565b67016345785d8a000081565b60006002600060405160200180807f63757272656e744379636c655374617274426c6f636b00000000000000000000815250601601905060405160208183030381529060405260405180828051906020019080838360208310610e1c5780518252601f199092019160209182019101610dfd565b612630336130b3565b151561263b57600080fd5b612643612ff7565b151561264e57600080fd5b6000612658611577565b1161266257600080fd5b6000194301407f55252fa6eee4741b4e24a74a70e9c11fd2c2281df8d6ea13126ff845f7825c896126916118e4565b60408051602080825283518183015283519192839290830191858101910280838360005b838110156126cd5781810151838201526020016126b5565b505050509050019250505060405180910390a26116cd60006117af565b6000600260006040516020018080600080516020615434833981519152815250601001905060405160208183030381529060405260405180828051906020019080838360208310610e1c5780518252601f199092019160209182019101610dfd565b6000600260008360405160200180807f76616c696461746f724665650000000000000000000000000000000000000000815250600c0182600160a060020a0316600160a060020a0316606060020a02815260140191505060405160208183030381529060405260405180828051906020019080838360208310611f7e5780518252601f199092019160209182019101611f5f565b80600a600060405160200180807f6e657756616c696461746f725365740000000000000000000000000000000000815250600f0190506040516020818303038152906040526040518082805190602001908083835b602083106128545780518252601f199092019160209182019101612835565b51815160001960209485036101000a019081169019919091161790526040805194909201849003909320865285830196909652509290930160002084516123639591945092019190506152ac565b6000805b6128af84612d07565b8110156128ea576128c08482612e07565b600160a060020a031683600160a060020a031614156128e257600191506128ef565b6001016128a6565b600091505b5092915050565b6060600a600060405160200180806000805160206154548339815191528152506011019050604051602081830303815290604052604051808280519060200190808383602083106119595780518252601f19909201916020918201910161193a565b607890565b6060600a600060405160200180806000805160206153d48339815191528152506011019050604051602081830303815290604052604051808280519060200190808383602083106119595780518252601f19909201916020918201910161193a565b60006002600060405160200180807f63757272656e744379636c65456e64426c6f636b000000000000000000000000815250601401905060405160208183030381529060405260405180828051906020019080838360208310610e1c5780518252601f199092019160209182019101610dfd565b60606114476128f6565b600060026000836040516020018080600080516020615414833981519152815250600b0182600160a060020a0316600160a060020a0316606060020a02815260140191505060405160208183030381529060405260405180828051906020019080838360208310611f7e5780518252601f199092019160209182019101611f5f565b6004600060405160200180807f6f776e657200000000000000000000000000000000000000000000000000000081525060050190506040516020818303038152906040526040518082805190602001908083835b60208310612b325780518252601f199092019160209182019101612b13565b51815160209384036101000a6000190180199092169116179052604080519290940182900390912086528501959095529290920160002054600160a060020a031633149250612b8391505057600080fd5b612b8b61160a565b15612b9557600080fd5b612bb273fffffffffffffffffffffffffffffffffffffffe611e2b565b612bba613b85565b600160a060020a0381161515612bd857612bd333613ded565b612be1565b612be181613ded565b612beb6001612c94565b6116076001613e4d565b6a0422ca8b0a00a42500000081565b69152d02c7e14af680000081565b6000600260008360405160200180806000805160206153f4833981519152815250600b0182600160a060020a0316600160a060020a0316606060020a02815260140191505060405160208183030381529060405260405180828051906020019080838360208310611f7e5780518252601f199092019160209182019101611f5f565b806006600060405160200180807f697346696e616c697a6564000000000000000000000000000000000000000000815250600b019050604051602081830303815290604052604051808280519060200190808383602083106113935780518252601f199092019160209182019101611374565b6000600a6000836040516020018080600080516020615394833981519152815250600a0182600160a060020a0316600160a060020a0316606060020a02815260140191505060405160208183030381529060405260405180828051906020019080838360208310611f7e5780518252601f199092019160209182019101611f5f565b6123638282613311565b60006002600060405160200180807f6e657874536e617073686f744964000000000000000000000000000000000000815250600e01905060405160208183030381529060405260405180828051906020019080838360208310610e1c5780518252601f199092019160209182019101610dfd565b6000600a6000846040516020018080600080516020615394833981519152815250600a0182600160a060020a0316600160a060020a0316606060020a0281526014019150506040516020818303038152906040526040518082805190602001908083835b60208310612e8a5780518252601f199092019160209182019101612e6b565b51815160209384036101000a60001901801990921691161790526040805192909401829003909120865285019590955292909201600020805490935085925082109050612ed357fe5b600091825260209091200154600160a060020a03169392505050565b60006004600060405160200180807f70726f787953746f726167650000000000000000000000000000000000000000815250600c0190506040516020818303038152906040526040518082805190602001908083836020831061255e5780518252601f19909201916020918201910161253f565b6000600260008360405160200180807f72656c65617365426c6f636b0000000000000000000000000000000000000000815250600c0182600160a060020a0316600160a060020a0316606060020a02815260140191505060405160208183030381529060405260405180828051906020019080838360208310611f7e5780518252601f199092019160209182019101611f5f565b60006006600060405160200180807f73686f756c64456d6974496e6974696174654368616e6765000000000000000081525060180190506040516020818303038152906040526040518082805190602001908083836020831061167f5780518252601f199092019160209182019101611660565b60005b8151811015612363576130a0828281518110151561308857fe5b90602001906020020151670de0b6b3a7640000613311565b60010161306e565b6123633382846136a3565b6000805b6130bf6116cf565b811015611432576130cf81611877565b600160a060020a031683600160a060020a031614156130f15760019150611437565b6001016130b7565b6000805b613105611515565b8110156114325761311581610ebf565b600160a060020a031683600160a060020a031614156131375760019150611437565b6001016130fd565b61160781613ec0565b690a968163f0a57b40000090565b60408051600080516020615474833981519152602080830191909152606060020a600160a060020a038088168202602f850152861602604383015282516037818403018152605790920192839052815161322093859360029360009391929182918401908083835b602083106131dd5780518252601f1990920191602091820191016131be565b51815160209384036101000a600019018019909216911617905260408051929094018290039091208652850195909552929092016000205493925050613ddb9050565b60408051600080516020615474833981519152602080830191909152606060020a600160a060020a038089168202602f850152871602604383015282516037818403018152605790920192839052815160029360009392909182918401908083835b602083106132a15780518252601f199092019160209182019101613282565b51815160209384036101000a6000190180199092169116179052604080519290940182900390912086528501959095529290920160002093909355505050600160a060020a0382811690841614801590613302575061330082846128a2565b155b15610da257610da28383613f21565b6133958160026000856040516020018080600080516020615414833981519152815250600b0182600160a060020a0316600160a060020a0316606060020a028152601401915050604051602081830303815290604052604051808280519060200190808383602083106131dd5780518252601f1990920191602091820191016131be565b60026000846040516020018080600080516020615414833981519152815250600b0182600160a060020a0316600160a060020a0316606060020a0281526014019150506040516020818303038152906040526040518082805190602001908083836020831061176d5780518252601f19909201916020918201910161174e565b61341e816113ec565b1561342857600080fd5b600a600060405160200180806000805160206153d483398151915281525060110190506040516020818303038152906040526040518082805190602001908083835b602083106134895780518252601f19909201916020918201910161346a565b51815160209384036101000a600019018019909216911617905260408051929094018290039091208652858101969096525092909201600090812080546001810182559082529390209092018054600160a060020a031916600160a060020a0394909416939093179092555050565b80600260008460405160200180807f76616c696461746f724665650000000000000000000000000000000000000000815250600c0182600160a060020a0316600160a060020a0316606060020a0281526014019150506040516020818303038152906040526040518082805190602001908083836020831061176d5780518252601f19909201916020918201910161174e565b6135ef816002600060405160200180806000805160206154348339815191528152506010019050604051602081830303815290604052604051808280519060200190808383602083106131dd5780518252601f1990920191602091820191016131be565b60026000604051602001808060008051602061543483398151915281525060100190506040516020818303038152906040526040518082805190602001908083835b602083106136505780518252601f199092019160209182019101613631565b51815160209384036101000a600019018019909216911617905260408051929094018290039091208652850195909552929092016000209390935550505050565b600061369b6129bf565b431015905090565b6000600160a060020a03821615156136ba57600080fd5b600083116136c757600080fd5b6136d082612a3d565b8311156136dc57600080fd5b6136e6848361144c565b8311156136f257600080fd5b6136fb826130b3565b9050613705611869565b61371e8461371285612a3d565b9063ffffffff61401216565b1080156137285750805b1561373b5761373682614029565b6137b7565b613746848385614227565b6137508284614479565b801561375f5761375f836144fd565b613767611869565b61377083612a3d565b101561377f5761377f82614029565b604051600160a060020a0385169084156108fc029085906000818181858888f193505050501580156137b5573d6000803e3d6000fd5b505b50505050565b6000600a60006040516020018080600080516020615454833981519152815250601101905060405160208183030381529060405260405180828051906020019080838360208310610e1c5780518252601f199092019160209182019101610dfd565b6000611a5b83612385613838858363ffffffff61401216565b613840614561565b9063ffffffff6145e416565b60008183101561385c5781611a5b565b5090919050565b60008083151561387657600091506128ef565b5082820282848281151561388657fe5b0414611a5b57600080fd5b6000808083116138a057600080fd5b82848115156138ab57fe5b04949350505050565b6138bd81614029565b61160781614605565b6138cf81614665565b6138d7611869565b6138e082612a3d565b101580156138f457506138f2816130f9565b155b156116075761160781613415565b60008080805b845183101561399c57613931858481518110151561392257fe5b90602001906020020151612a3d565b91508184019350613958858481518110151561394957fe5b9060200190602002015161274c565b90506139626113e0565b81101561399157613991858481518110151561397a57fe5b9060200190602002015161398c6113e0565b6134f8565b600190920191613908565b6139a584613ec0565b84600a6000604051602001808060008051602061545483398151915281525060110190506040516020818303038152906040526040518082805190602001908083835b60208310613a075780518252601f1990920191602091820191016139e8565b51815160001960209485036101000a0190811690199190911617905260408051949092018490039093208652858301969096525092909301600020845161235e9591945092019190506152ac565b600260008260405160200180806000805160206153b4833981519152815250600c0182600160a060020a0316600160a060020a0316606060020a0281526014019150506040516020818303038152906040526040518082805190602001908083835b60208310613ad65780518252601f199092019160209182019101613ab7565b51815160209384036101000a600019018019909216911617905260408051929094018290039091208652858101969096525092830160009081205484516000805160206153b483398151915281880152600160a060020a038816606060020a02602c82015285518082038801815290860195869052805160019092019660029693955090935082918482019181908490849083106136505780518252601f199092019160209182019101613631565b436002600060405160200180807f63757272656e744379636c655374617274426c6f636b0000000000000000000081525060160190506040516020818303038152906040526040518082805190602001908083835b60208310613bf95780518252601f199092019160209182019101613bda565b51815160209384036101000a600019018019909216911617905260408051929094018290039091208652850195909552929092016000209390935550613c4191506129589050565b43016002600060405160200180807f63757272656e744379636c65456e64426c6f636b00000000000000000000000081525060140190506040516020818303038152906040526040518082805190602001908083835b60208310613cb65780518252601f199092019160209182019101613c97565b51815160209384036101000a6000190180199092169116179052604080519290940182900390912086528501959095529290920160002093909355505050565b600080613d12612710611b168551611b16610bb8611b22612958565b9150600090505b8251811015610da25781613d438483815181101515613d3457fe5b90602001906020020151611fbf565b1015613d6e57613d698382815181101515613d5a57fe5b9060200190602002015161480b565b613db3565b613d8e8382815181101515613d7f57fe5b90602001906020020151611efb565b15613db357613db38382815181101515613da457fe5b9060200190602002015161482f565b613dd38382815181101515613dc457fe5b90602001906020020151614a6e565b600101613d19565b600082820183811015611a5b57600080fd5b600a600060405160200180806000805160206154548339815191528152506011019050604051602081830303815290604052604051808280519060200190808383602083106134895780518252601f19909201916020918201910161346a565b806006600060405160200180807f6973496e697469616c697a656400000000000000000000000000000000000000815250600d019050604051602081830303815290604052604051808280519060200190808383602083106113935780518252601f199092019160209182019101611374565b806002600060405160200180806000805160206154348339815191528152506010019050604051602081830303815290604052604051808280519060200190808383602083106136505780518252601f199092019160209182019101613631565b600a6000826040516020018080600080516020615394833981519152815250600a0182600160a060020a0316600160a060020a0316606060020a0281526014019150506040516020818303038152906040526040518082805190602001908083835b60208310613fa25780518252601f199092019160209182019101613f83565b51815160209384036101000a600019018019909216911617905260408051929094018290039091208652858101969096525092909201600090812080546001810182559082529390209092018054600160a060020a031916600160a060020a039590951694909417909355505050565b6000808383111561402257600080fd5b5050900390565b6000808080805b614038611515565b8310156140785761404883610ebf565b600160a060020a031686600160a060020a0316141561406d5782935060019450614078565b600190920191614030565b841561235e576001614088611515565b03915061409482610ebf565b9050600160a060020a038116156140af576140af8482614af0565b600a600060405160200180806000805160206153d483398151915281525060110190506040516020818303038152906040526040518082805190602001908083835b602083106141105780518252601f1990920191602091820191016140f1565b51815160209384036101000a6000190180199092169116179052604080519290940182900390912086528501959095529290920160002080549093508592508210905061415957fe5b600091825260208083209091018054600160a060020a0319169055604080516000805160206153d483398151915281840152815180820360110181526031909101918290528051600a94939192918291908401908083835b602083106141d05780518252601f1990920191602091820191016141b1565b51815160001960209485036101000a8101918216911992909216179091526040805195909301859003909420875286019690965250929093016000208054935061421e929091508301615311565b50505050505050565b60408051600080516020615474833981519152602080830191909152606060020a600160a060020a038088168202602f85015286160260438301528251603781840301815260579092019283905281516142f193859360029360009391929182918401908083835b602083106142ae5780518252601f19909201916020918201910161428f565b51815160209384036101000a6000190180199092169116179052604080519290940182900390912086528501959095529290920160002054939250506140129050565b60408051600080516020615474833981519152602080830191909152606060020a600160a060020a038089168202602f850152871602604383015282516037818403018152605790920192839052815160029360009392909182918401908083835b602083106143725780518252601f199092019160209182019101614353565b51815160001960209485036101000a019081169019919091161790526040805194909201849003909320865285830196909652509284016000908120959095555050815160008051602061547483398151915281830152606060020a600160a060020a038089168202602f84015287160260438201528251603781830301815260579091019283905280516002949391928291908401908083835b6020831061442c5780518252601f19909201916020918201910161440d565b51815160209384036101000a600019018019909216911617905260408051929094018290039091208652850195909552929092016000205415159250610da291505057610da28383614bcd565b6133958160026000856040516020018080600080516020615414833981519152815250600b0182600160a060020a0316600160a060020a0316606060020a028152601401915050604051602081830303815290604052604051808280519060200190808383602083106142ae5780518252601f19909201916020918201910161428f565b6135ef816002600060405160200180806000805160206154348339815191528152506010019050604051602081830303815290604052604051808280519060200190808383602083106142ae5780518252601f19909201916020918201910161428f565b60408051600019430140602080830191909152825180830382018152918301928390528151600093918291908401908083835b602083106145b35780518252601f199092019160209182019101614594565b5181516020939093036101000a60001901801990911692169190911790526040519201829003909120949350505050565b60008115156145f257600080fd5b81838115156145fd57fe5b069392505050565b600a600060405160200180806000805160206153748339815191528152506010019050604051602081830303815290604052604051808280519060200190808383602083106134895780518252601f19909201916020918201910161346a565b6000808080805b614674610e5d565b8310156146b45761468483612487565b600160a060020a031686600160a060020a031614156146a957829350600194506146b4565b60019092019161466c565b841561235e5760016146c4610e5d565b0391506146d082612487565b9050600160a060020a038116156146eb576146eb8482614e06565b600a6000604051602001808060008051602061537483398151915281525060100190506040516020818303038152906040526040518082805190602001908083835b6020831061474c5780518252601f19909201916020918201910161472d565b51815160209384036101000a6000190180199092169116179052604080519290940182900390912086528501959095529290920160002080549093508592508210905061479557fe5b600091825260208083209091018054600160a060020a03191690556040805160008051602061537483398151915281840152815180820360100181526030909101918290528051600a9493919291829190840190808383602083106141d05780518252601f1990920191602091820191016141b1565b61481481614029565b61481d81614605565b61482681614e67565b611607816150aa565b600260008260405160200180806000805160206153f4833981519152815250600b0182600160a060020a0316600160a060020a0316606060020a0281526014019150506040516020818303038152906040526040518082805190602001908083835b602083106148b05780518252601f199092019160209182019101614891565b51815160209384036101000a600019018019909216911617905260408051929094018290039091208652858101969096525092830160009081205484516000805160206153f483398151915281880152600160a060020a038816606060020a02602b8201528551808203601f018152603f9091019586905280516001909201966002969395509093508291908401908083835b602083106149625780518252601f199092019160209182019101614943565b51815160209384036101000a6000190180199092169116179052604080519290940182900390912086528581019690965250928301600090812095909555505080516000805160206153f483398151915281840152600160a060020a038516606060020a02602b8201528151808203601f018152603f90910191829052805160329460029490939182918401908083835b60208310614a125780518252601f1990920191602091820191016149f3565b6001836020036101000a03801982511681845116808217855250505050505090500191505060405180910390206000191660001916815260200190815260200160002054111561160757614a65816150aa565b6116078161512c565b6000600260008360405160200180806000805160206153b4833981519152815250600c0182600160a060020a0316600160a060020a0316606060020a028152601401915050604051602081830303815290604052604051808280519060200190808383602083106136505780518252601f199092019160209182019101613631565b80600a600060405160200180806000805160206153d483398151915281525060110190506040516020818303038152906040526040518082805190602001908083835b60208310614b525780518252601f199092019160209182019101614b33565b51815160209384036101000a60001901801990921691161790526040805192909401829003909120865285019590955292909201600020805490935086925082109050614b9b57fe5b9060005260206000200160006101000a815481600160a060020a030219169083600160a060020a031602179055505050565b6000808080805b614bdd86612d07565b831015614c1e57614bee8684612e07565b600160a060020a031687600160a060020a03161415614c135782935060019450614c1e565b600190920191614bd4565b841561421e576001614c2f87612d07565b039150614c3c8683612e07565b9050600160a060020a03811615614c5857614c588685836151ae565b600a6000876040516020018080600080516020615394833981519152815250600a0182600160a060020a0316600160a060020a0316606060020a0281526014019150506040516020818303038152906040526040518082805190602001908083835b60208310614cd95780518252601f199092019160209182019101614cba565b51815160209384036101000a60001901801990921691161790526040805192909401829003909120865285019590955292909201600020805490935085925082109050614d2257fe5b600091825260208083209091018054600160a060020a03191690556040805160008051602061539483398151915281840152606060020a600160a060020a038b1602602a8201528151601e818303018152603e909101918290528051600a94939192918291908401908083835b60208310614dae5780518252601f199092019160209182019101614d8f565b51815160001960209485036101000a81019182169119929092161790915260408051959093018590039094208752860196909652509290930160002080549350614dfc929091508301615311565b5050505050505050565b80600a60006040516020018080600080516020615374833981519152815250601001905060405160208183030381529060405260405180828051906020019080838360208310614b525780518252601f199092019160209182019101614b33565b600060026000836040516020018080600080516020615494833981519152815250600b0182600160a060020a0316600160a060020a0316606060020a0281526014019150506040516020818303038152906040526040518082805190602001908083835b60208310614eea5780518252601f199092019160209182019101614ecb565b6001836020036101000a038019825116818451168082178552505050505050905001915050604051809103902060001916600019168152602001908152602001600020549050614f4c6001613712614f4484611b22612958565b6123856129bf565b600260008460405160200180807f72656c65617365426c6f636b0000000000000000000000000000000000000000815250600c0182600160a060020a0316600160a060020a0316606060020a0281526014019150506040516020818303038152906040526040518082805190602001908083835b60208310614fdf5780518252601f199092019160209182019101614fc0565b51815160209384036101000a60001901801990921691161790526040805192909401829003909120865285019590955292909201600020939093555050600582119050612363578060010160026000846040516020018080600080516020615494833981519152815250600b0182600160a060020a0316600160a060020a0316606060020a0281526014019150506040516020818303038152906040526040518082805190602001908083836020831061176d5780518252601f19909201916020918201910161174e565b6000600260008360405160200180806000805160206153f4833981519152815250600b0182600160a060020a0316600160a060020a0316606060020a028152601401915050604051602081830303815290604052604051808280519060200190808383602083106136505780518252601f199092019160209182019101613631565b600060026000836040516020018080600080516020615494833981519152815250600b0182600160a060020a0316600160a060020a0316606060020a028152601401915050604051602081830303815290604052604051808280519060200190808383602083106136505780518252601f199092019160209182019101613631565b80600a6000856040516020018080600080516020615394833981519152815250600a0182600160a060020a0316600160a060020a0316606060020a0281526014019150506040516020818303038152906040526040518082805190602001908083835b602083106152305780518252601f199092019160209182019101615211565b51815160209384036101000a6000190180199092169116179052604080519290940182900390912086528501959095529290920160002080549093508692508210905061527957fe5b9060005260206000200160006101000a815481600160a060020a030219169083600160a060020a03160217905550505050565b828054828255906000526020600020908101928215615301579160200282015b828111156153015782518254600160a060020a031916600160a060020a039091161782556020909201916001909101906152cc565b5061530d929150615335565b5090565b815481835581811115610da257600083815260209020610da2918101908301615359565b610e5a91905b8082111561530d578054600160a060020a031916815560010161533b565b610e5a91905b8082111561530d576000815560010161535f56006a61696c656456616c696461746f72730000000000000000000000000000000064656c656761746f727300000000000000000000000000000000000000000000626c6f636b436f756e746572000000000000000000000000000000000000000070656e64696e6756616c696461746f7273000000000000000000000000000000737472696b6552657365740000000000000000000000000000000000000000007374616b65416d6f756e74000000000000000000000000000000000000000000746f74616c5374616b65416d6f756e740000000000000000000000000000000063757272656e7456616c696461746f727300000000000000000000000000000064656c656761746564416d6f756e740000000000000000000000000000000000737472696b65436f756e74000000000000000000000000000000000000000000a165627a7a72305820fdb6a314a9fefcf1335d035a7272c3de24c5167f4e644de9bf4f1da9cc630e0d0029",
  "linkReferences": {},
  "deployedLinkReferences": {}
}