{
  "_format": "hh-sol-artifact-1",
  "contractName": "Consensus",
  "sourceName": "contracts/Consensus.sol",
  "abi": [
    {
      "constant": true,
      "inputs": [],
      "name": "getLastSnapshotTakenAtBlock",
      "outputs": [
        {
          "name": "",
          "type": "uint256"
        }
      ],
      "payable": false,
      "stateMutability": "view",
      "type": "function"
    },
    {
      "constant": true,
      "inputs": [],
      "name": "jailedValidatorsLength",
      "outputs": [
        {
          "name": "",
          "type": "uint256"
        }
      ],
      "payable": false,
      "stateMutability": "view",
      "type": "function"
    },
    {
      "constant": true,
      "inputs": [
        {
          "name": "_p",
          "type": "uint256"
        }
      ],
      "name": "pendingValidatorsAtPosition",
      "outputs": [
        {
          "name": "",
          "type": "address"
        }
      ],
      "payable": false,
      "stateMutability": "view",
      "type": "function"
    },
    {
      "constant": true,
      "inputs": [
        {
          "name": "_snapshotId",
          "type": "uint256"
        }
      ],
      "name": "getSnapshotAddresses",
      "outputs": [
        {
          "name": "",
          "type": "address[]"
        }
      ],
      "payable": false,
      "stateMutability": "view",
      "type": "function"
    },
    {
      "constant": false,
      "inputs": [
        {
          "name": "_newAddress",
          "type": "address"
        }
      ],
      "name": "setProxyStorage",
      "outputs": [],
      "payable": false,
      "stateMutability": "nonpayable",
      "type": "function"
    },
    {
      "constant": true,
      "inputs": [],
      "name": "getMinValidatorFee",
      "outputs": [
        {
          "name": "",
          "type": "uint256"
        }
      ],
      "payable": false,
      "stateMutability": "pure",
      "type": "function"
    },
    {
      "constant": true,
      "inputs": [
        {
          "name": "_address",
          "type": "address"
        }
      ],
      "name": "isJailed",
      "outputs": [
        {
          "name": "",
          "type": "bool"
        }
      ],
      "payable": false,
      "stateMutability": "view",
      "type": "function"
    },
    {
      "constant": true,
      "inputs": [
        {
          "name": "_address",
          "type": "address"
        },
        {
          "name": "_validator",
          "type": "address"
        }
      ],
      "name": "delegatedAmount",
      "outputs": [
        {
          "name": "",
          "type": "uint256"
        }
      ],
      "payable": false,
      "stateMutability": "view",
      "type": "function"
    },
    {
      "constant": true,
      "inputs": [],
      "name": "SNAPSHOTS_PER_CYCLE",
      "outputs": [
        {
          "name": "",
          "type": "uint256"
        }
      ],
      "payable": false,
      "stateMutability": "view",
      "type": "function"
    },
    {
      "constant": true,
      "inputs": [],
      "name": "pendingValidatorsLength",
      "outputs": [
        {
          "name": "",
          "type": "uint256"
        }
      ],
      "payable": false,
      "stateMutability": "view",
      "type": "function"
    },
    {
      "constant": true,
      "inputs": [],
      "name": "newValidatorSetLength",
      "outputs": [
        {
          "name": "",
          "type": "uint256"
        }
      ],
      "payable": false,
      "stateMutability": "view",
      "type": "function"
    },
    {
      "constant": true,
      "inputs": [],
      "name": "DECIMALS",
      "outputs": [
        {
          "name": "",
          "type": "uint256"
        }
      ],
      "payable": false,
      "stateMutability": "view",
      "type": "function"
    },
    {
      "constant": false,
      "inputs": [
        {
          "name": "_amount",
          "type": "uint256"
        }
      ],
      "name": "withdraw",
      "outputs": [],
      "payable": false,
      "stateMutability": "nonpayable",
      "type": "function"
    },
    {
      "constant": true,
      "inputs": [],
      "name": "isInitialized",
      "outputs": [
        {
          "name": "",
          "type": "bool"
        }
      ],
      "payable": false,
      "stateMutability": "view",
      "type": "function"
    },
    {
      "constant": false,
      "inputs": [],
      "name": "stake",
      "outputs": [],
      "payable": true,
      "stateMutability": "payable",
      "type": "function"
    },
    {
      "constant": true,
      "inputs": [],
      "name": "currentValidatorsLength",
      "outputs": [
        {
          "name": "",
          "type": "uint256"
        }
      ],
      "payable": false,
      "stateMutability": "view",
      "type": "function"
    },
    {
      "constant": false,
      "inputs": [
        {
          "name": "_amount",
          "type": "uint256"
        }
      ],
      "name": "setValidatorFee",
      "outputs": [],
      "payable": false,
      "stateMutability": "nonpayable",
      "type": "function"
    },
    {
      "constant": true,
      "inputs": [],
      "name": "getMinStake",
      "outputs": [
        {
          "name": "",
          "type": "uint256"
        }
      ],
      "payable": false,
      "stateMutability": "pure",
      "type": "function"
    },
    {
      "constant": true,
      "inputs": [
        {
          "name": "_p",
          "type": "uint256"
        }
      ],
      "name": "currentValidatorsAtPosition",
      "outputs": [
        {
          "name": "",
          "type": "address"
        }
      ],
      "payable": false,
      "stateMutability": "view",
      "type": "function"
    },
    {
      "constant": false,
      "inputs": [
        {
          "name": "_validator",
          "type": "address"
        }
      ],
      "name": "delegate",
      "outputs": [],
      "payable": true,
      "stateMutability": "payable",
      "type": "function"
    },
    {
      "constant": true,
      "inputs": [],
      "name": "newValidatorSet",
      "outputs": [
        {
          "name": "",
          "type": "address[]"
        }
      ],
      "payable": false,
      "stateMutability": "view",
      "type": "function"
    },
    {
      "constant": true,
      "inputs": [],
      "name": "jailedValidators",
      "outputs": [
        {
          "name": "",
          "type": "address[]"
        }
      ],
      "payable": false,
      "stateMutability": "view",
      "type": "function"
    },
    {
      "constant": true,
      "inputs": [
        {
          "name": "_validator",
          "type": "address"
        },
        {
          "name": "_rewardAmount",
          "type": "uint256"
        }
      ],
      "name": "getDelegatorsForRewardDistribution",
      "outputs": [
        {
          "name": "",
          "type": "address[]"
        },
        {
          "name": "",
          "type": "uint256[]"
        }
      ],
      "payable": false,
      "stateMutability": "view",
      "type": "function"
    },
    {
      "constant": true,
      "inputs": [],
      "name": "STRIKE_RESET",
      "outputs": [
        {
          "name": "",
          "type": "uint256"
        }
      ],
      "payable": false,
      "stateMutability": "view",
      "type": "function"
    },
    {
      "constant": false,
      "inputs": [],
      "name": "maintenance",
      "outputs": [],
      "payable": false,
      "stateMutability": "nonpayable",
      "type": "function"
    },
    {
      "constant": false,
      "inputs": [],
      "name": "unJail",
      "outputs": [],
      "payable": false,
      "stateMutability": "nonpayable",
      "type": "function"
    },
    {
      "constant": true,
      "inputs": [],
      "name": "MAX_VALIDATORS",
      "outputs": [
        {
          "name": "",
          "type": "uint256"
        }
      ],
      "payable": false,
      "stateMutability": "view",
      "type": "function"
    },
    {
      "constant": true,
      "inputs": [],
      "name": "VALIDATOR_PRODUCTIVITY_BP",
      "outputs": [
        {
          "name": "",
          "type": "uint256"
        }
      ],
      "payable": false,
      "stateMutability": "view",
      "type": "function"
    },
    {
      "constant": false,
      "inputs": [],
      "name": "finalizeChange",
      "outputs": [],
      "payable": false,
      "stateMutability": "nonpayable",
      "type": "function"
    },
    {
      "constant": true,
      "inputs": [],
      "name": "getMaxValidators",
      "outputs": [
        {
          "name": "",
          "type": "uint256"
        }
      ],
      "payable": false,
      "stateMutability": "pure",
      "type": "function"
    },
    {
      "constant": true,
      "inputs": [
        {
          "name": "_validator",
          "type": "address"
        }
      ],
      "name": "getStrikes",
      "outputs": [
        {
          "name": "",
          "type": "uint256"
        }
      ],
      "payable": false,
      "stateMutability": "view",
      "type": "function"
    },
    {
      "constant": true,
      "inputs": [
        {
          "name": "_validator",
          "type": "address"
        }
      ],
      "name": "blockCounter",
      "outputs": [
        {
          "name": "",
          "type": "uint256"
        }
      ],
      "payable": false,
      "stateMutability": "view",
      "type": "function"
    },
    {
      "constant": true,
      "inputs": [],
      "name": "CYCLE_DURATION_BLOCKS",
      "outputs": [
        {
          "name": "",
          "type": "uint256"
        }
      ],
      "payable": false,
      "stateMutability": "view",
      "type": "function"
    },
    {
      "constant": false,
      "inputs": [
        {
          "name": "_validator",
          "type": "address"
        }
      ],
      "name": "cycle",
      "outputs": [],
      "payable": false,
      "stateMutability": "nonpayable",
      "type": "function"
    },
    {
      "constant": true,
      "inputs": [],
      "name": "MAX_STRIKE_COUNT",
      "outputs": [
        {
          "name": "",
          "type": "uint256"
        }
      ],
      "payable": false,
      "stateMutability": "view",
      "type": "function"
    },
    {
      "constant": true,
      "inputs": [],
      "name": "getSnapshotsPerCycle",
      "outputs": [
        {
          "name": "",
          "type": "uint256"
        }
      ],
      "payable": false,
      "stateMutability": "pure",
      "type": "function"
    },
    {
      "constant": true,
      "inputs": [],
      "name": "requiredSignatures",
      "outputs": [
        {
          "name": "",
          "type": "uint256"
        }
      ],
      "payable": false,
      "stateMutability": "view",
      "type": "function"
    },
    {
      "constant": true,
      "inputs": [
        {
          "name": "_validator",
          "type": "address"
        }
      ],
      "name": "delegators",
      "outputs": [
        {
          "name": "",
          "type": "address[]"
        }
      ],
      "payable": false,
      "stateMutability": "view",
      "type": "function"
    },
    {
      "constant": true,
      "inputs": [],
      "name": "isFinalized",
      "outputs": [
        {
          "name": "",
          "type": "bool"
        }
      ],
      "payable": false,
      "stateMutability": "view",
      "type": "function"
    },
    {
      "constant": true,
      "inputs": [
        {
          "name": "_p",
          "type": "uint256"
        }
      ],
      "name": "jailedValidatorsAtPosition",
      "outputs": [
        {
          "name": "",
          "type": "address"
        }
      ],
      "payable": false,
      "stateMutability": "view",
      "type": "function"
    },
    {
      "constant": true,
      "inputs": [],
      "name": "DEFAULT_VALIDATOR_FEE",
      "outputs": [
        {
          "name": "",
          "type": "uint256"
        }
      ],
      "payable": false,
      "stateMutability": "view",
      "type": "function"
    },
    {
      "constant": true,
      "inputs": [],
      "name": "getCurrentCycleStartBlock",
      "outputs": [
        {
          "name": "",
          "type": "uint256"
        }
      ],
      "payable": false,
      "stateMutability": "view",
      "type": "function"
    },
    {
      "constant": false,
      "inputs": [],
      "name": "emitInitiateChange",
      "outputs": [],
      "payable": false,
      "stateMutability": "nonpayable",
      "type": "function"
    },
    {
      "constant": true,
      "inputs": [],
      "name": "totalStakeAmount",
      "outputs": [
        {
          "name": "",
          "type": "uint256"
        }
      ],
      "payable": false,
      "stateMutability": "view",
      "type": "function"
    },
    {
      "constant": true,
      "inputs": [
        {
          "name": "_validator",
          "type": "address"
        }
      ],
      "name": "validatorFee",
      "outputs": [
        {
          "name": "",
          "type": "uint256"
        }
      ],
      "payable": false,
      "stateMutability": "view",
      "type": "function"
    },
    {
      "constant": true,
      "inputs": [
        {
          "name": "_validator",
          "type": "address"
        },
        {
          "name": "_address",
          "type": "address"
        }
      ],
      "name": "isDelegator",
      "outputs": [
        {
          "name": "",
          "type": "bool"
        }
      ],
      "payable": false,
      "stateMutability": "view",
      "type": "function"
    },
    {
      "constant": true,
      "inputs": [],
      "name": "currentValidators",
      "outputs": [
        {
          "name": "",
          "type": "address[]"
        }
      ],
      "payable": false,
      "stateMutability": "view",
      "type": "function"
    },
    {
      "constant": true,
      "inputs": [],
      "name": "getCycleDurationBlocks",
      "outputs": [
        {
          "name": "",
          "type": "uint256"
        }
      ],
      "payable": false,
      "stateMutability": "pure",
      "type": "function"
    },
    {
      "constant": true,
      "inputs": [],
      "name": "pendingValidators",
      "outputs": [
        {
          "name": "",
          "type": "address[]"
        }
      ],
      "payable": false,
      "stateMutability": "view",
      "type": "function"
    },
    {
      "constant": true,
      "inputs": [],
      "name": "getCurrentCycleEndBlock",
      "outputs": [
        {
          "name": "",
          "type": "uint256"
        }
      ],
      "payable": false,
      "stateMutability": "view",
      "type": "function"
    },
    {
      "constant": true,
      "inputs": [],
      "name": "getValidators",
      "outputs": [
        {
          "name": "",
          "type": "address[]"
        }
      ],
      "payable": false,
      "stateMutability": "view",
      "type": "function"
    },
    {
      "constant": true,
      "inputs": [
        {
          "name": "_address",
          "type": "address"
        }
      ],
      "name": "stakeAmount",
      "outputs": [
        {
          "name": "",
          "type": "uint256"
        }
      ],
      "payable": false,
      "stateMutability": "view",
      "type": "function"
    },
    {
      "constant": false,
      "inputs": [
        {
          "name": "_initialValidator",
          "type": "address"
        }
      ],
      "name": "initialize",
      "outputs": [],
      "payable": false,
      "stateMutability": "nonpayable",
      "type": "function"
    },
    {
      "constant": true,
      "inputs": [],
      "name": "MAX_STAKE",
      "outputs": [
        {
          "name": "",
          "type": "uint256"
        }
      ],
      "payable": false,
      "stateMutability": "view",
      "type": "function"
    },
    {
      "constant": true,
      "inputs": [],
      "name": "MIN_STAKE",
      "outputs": [
        {
          "name": "",
          "type": "uint256"
        }
      ],
      "payable": false,
      "stateMutability": "view",
      "type": "function"
    },
    {
      "constant": true,
      "inputs": [
        {
          "name": "_validator",
          "type": "address"
        }
      ],
      "name": "getStrikeReset",
      "outputs": [
        {
          "name": "",
          "type": "uint256"
        }
      ],
      "payable": false,
      "stateMutability": "view",
      "type": "function"
    },
    {
      "constant": true,
      "inputs": [
        {
          "name": "_validator",
          "type": "address"
        }
      ],
      "name": "delegatorsLength",
      "outputs": [
        {
          "name": "",
          "type": "uint256"
        }
      ],
      "payable": false,
      "stateMutability": "view",
      "type": "function"
    },
    {
      "constant": true,
      "inputs": [],
      "name": "getNextSnapshotId",
      "outputs": [
        {
          "name": "",
          "type": "uint256"
        }
      ],
      "payable": false,
      "stateMutability": "view",
      "type": "function"
    },
    {
      "constant": true,
      "inputs": [
        {
          "name": "_validator",
          "type": "address"
        },
        {
          "name": "_p",
          "type": "uint256"
        }
      ],
      "name": "delegatorsAtPosition",
      "outputs": [
        {
          "name": "",
          "type": "address"
        }
      ],
      "payable": false,
      "stateMutability": "view",
      "type": "function"
    },
    {
      "constant": true,
      "inputs": [],
      "name": "getProxyStorage",
      "outputs": [
        {
          "name": "",
          "type": "address"
        }
      ],
      "payable": false,
      "stateMutability": "view",
      "type": "function"
    },
    {
      "constant": true,
      "inputs": [
        {
          "name": "_validator",
          "type": "address"
        }
      ],
      "name": "getReleaseBlock",
      "outputs": [
        {
          "name": "",
          "type": "uint256"
        }
      ],
      "payable": false,
      "stateMutability": "view",
      "type": "function"
    },
    {
      "constant": true,
      "inputs": [],
      "name": "shouldEmitInitiateChange",
      "outputs": [
        {
          "name": "",
          "type": "bool"
        }
      ],
      "payable": false,
      "stateMutability": "view",
      "type": "function"
    },
    {
      "constant": false,
      "inputs": [
        {
          "name": "_validator",
          "type": "address"
        },
        {
          "name": "_amount",
          "type": "uint256"
        }
      ],
      "name": "withdraw",
      "outputs": [],
      "payable": false,
      "stateMutability": "nonpayable",
      "type": "function"
    },
    {
      "constant": true,
      "inputs": [
        {
          "name": "_address",
          "type": "address"
        }
      ],
      "name": "isValidator",
      "outputs": [
        {
          "name": "",
          "type": "bool"
        }
      ],
      "payable": false,
      "stateMutability": "view",
      "type": "function"
    },
    {
      "constant": true,
      "inputs": [
        {
          "name": "_address",
          "type": "address"
        }
      ],
      "name": "isPendingValidator",
      "outputs": [
        {
          "name": "",
          "type": "bool"
        }
      ],
      "payable": false,
      "stateMutability": "view",
      "type": "function"
    },
    {
      "constant": true,
      "inputs": [],
      "name": "getMaxStake",
      "outputs": [
        {
          "name": "",
          "type": "uint256"
        }
      ],
      "payable": false,
      "stateMutability": "pure",
      "type": "function"
    },
    {
      "payable": true,
      "stateMutability": "payable",
      "type": "fallback"
    },
    {
      "anonymous": false,
      "inputs": [
        {
          "indexed": false,
          "name": "newSet",
          "type": "address[]"
        }
      ],
      "name": "ChangeFinalized",
      "type": "event"
    },
    {
      "anonymous": false,
      "inputs": [],
      "name": "ShouldEmitInitiateChange",
      "type": "event"
    },
    {
      "anonymous": false,
      "inputs": [
        {
          "indexed": true,
          "name": "parentHash",
          "type": "bytes32"
        },
        {
          "indexed": false,
          "name": "newSet",
          "type": "address[]"
        }
      ],
      "name": "InitiateChange",
      "type": "event"
    }
  ],
  "bytecode": "0x608060405234801561001057600080fd5b50614f53806100206000396000f3006080604052600436106102f25763ffffffff60e060020a6000350416630300fc3581146102ff57806308c90076146103265780630fe9d28e1461033b5780631043ca281461036f57806310855269146103d757806310f606e7146103f857806314bfb5271461040d57806321429e6014610442578063256f9193146104695780632a807f151461047e5780632bec36d2146104935780632e0f2625146104a85780632e1a7d4d146104bd578063392e53cd146104d55780633a4b66f1146104ea57806340c9cdeb146104f257806355460f811461050757806356a3b5fa1461051f57806357aeefc5146105345780635c19a95c1461054c5780635ccee1de14610560578063651d8c22146105755780636a28f12f1461058a5780636bdf1d5a146106475780636c376cc51461065c5780636eae5b1114610671578063714897df1461064757806372e81e3214610686578063752862111461069b57806376bd510f146106b05780637b1e52a5146106c55780637d8f7a61146106e65780637e2bf1201461070757806385cd84641461071c5780638615b1711461073d5780638bbc1e6b146107525780638d068043146107675780638d23fc611461077c5780638d4e40831461079d5780638da873f8146107b257806392b391f3146107ca578063932781d6146107df57806393b4e25e146107f457806394409a56146108095780639f77dc301461081e578063a0e119291461083f578063a2cde60914610866578063a65249231461087b578063a82f255b14610890578063af295181146108a5578063b7ab4db5146108ba578063bf135267146108cf578063c4d66de8146108f0578063c98517c514610911578063cb1c2b5c14610926578063d2166ce91461093b578063ddb3f4871461095c578063e9fbe9d41461097d578063eb431b6a14610992578063ec15a5e6146109b6578063ee19a7fc146109cb578063ef7b6d89146109ec578063f3fef3a314610a01578063facd743b14610a25578063fb64aac114610a46578063fe35505b14610a67575b6102fd333433610a7c565b005b34801561030b57600080fd5b50610314610b44565b60408051918252519081900360200190f35b34801561033257600080fd5b50610314610bfa565b34801561034757600080fd5b50610353600435610c5c565b60408051600160a060020a039092168252519081900360200190f35b34801561037b57600080fd5b50610387600435610d23565b60408051602080825283518183015283519192839290830191858101910280838360005b838110156103c35781810151838201526020016103ab565b505050509050019250505060405180910390f35b3480156103e357600080fd5b506102fd600160a060020a0360043516610e5e565b34801561040457600080fd5b5061031461117d565b34801561041957600080fd5b5061042e600160a060020a0360043516611189565b604080519115158252519081900360200190f35b34801561044e57600080fd5b50610314600160a060020a03600435811690602435166111da565b34801561047557600080fd5b5061031461129e565b34801561048a57600080fd5b506103146112a3565b34801561049f57600080fd5b50610314611305565b3480156104b457600080fd5b50610314611379565b3480156104c957600080fd5b506102fd600435611385565b3480156104e157600080fd5b5061042e611393565b6102fd61144b565b3480156104fe57600080fd5b50610314611458565b34801561051357600080fd5b506102fd6004356114ba565b34801561052b57600080fd5b50610314611501565b34801561054057600080fd5b5061035360043561150f565b6102fd600160a060020a0360043516611571565b34801561056c57600080fd5b5061038761157c565b34801561058157600080fd5b50610387611685565b34801561059657600080fd5b506105ae600160a060020a03600435166024356116e7565b604051808060200180602001838103835285818151815260200191508051906020019060200280838360005b838110156105f25781810151838201526020016105da565b50505050905001838103825284818151815260200191508051906020019060200280838360005b83811015610631578181015183820152602001610619565b5050505090500194505050505060405180910390f35b34801561065357600080fd5b506103146117e5565b34801561066857600080fd5b506102fd6117ea565b34801561067d57600080fd5b506102fd61181a565b34801561069257600080fd5b50610314611853565b3480156106a757600080fd5b506102fd611859565b3480156106bc57600080fd5b506103146119d2565b3480156106d157600080fd5b50610314600160a060020a03600435166119d7565b3480156106f257600080fd5b50610314600160a060020a0360043516611a9b565b34801561071357600080fd5b50610314611b1d565b34801561072857600080fd5b506102fd600160a060020a0360043516611b23565b34801561074957600080fd5b50610314611e43565b34801561075e57600080fd5b50610314611e48565b34801561077357600080fd5b50610314611e4d565b34801561078857600080fd5b50610387600160a060020a0360043516611e72565b3480156107a957600080fd5b5061042e611ef4565b3480156107be57600080fd5b50610353600435611f68565b3480156107d657600080fd5b50610314611fca565b3480156107eb57600080fd5b50610314611fd6565b34801561080057600080fd5b506102fd61204a565b34801561081557600080fd5b5061031461210d565b34801561082a57600080fd5b50610314600160a060020a036004351661216f565b34801561084b57600080fd5b5061042e600160a060020a0360043581169060243516612203565b34801561087257600080fd5b50610387612257565b34801561088757600080fd5b506103146122b9565b34801561089c57600080fd5b506103876122bf565b3480156108b157600080fd5b50610314612321565b3480156108c657600080fd5b50610387612395565b3480156108db57600080fd5b50610314600160a060020a036004351661239f565b3480156108fc57600080fd5b506102fd600160a060020a0360043516612421565b34801561091d57600080fd5b50610314612557565b34801561093257600080fd5b50610314612566565b34801561094757600080fd5b50610314600160a060020a0360043516612574565b34801561096857600080fd5b50610314600160a060020a03600435166125f6565b34801561098957600080fd5b50610314612678565b34801561099e57600080fd5b50610353600160a060020a03600435166024356126ec565b3480156109c257600080fd5b506103536127d4565b3480156109d757600080fd5b50610314600160a060020a0360043516612892565b3480156109f857600080fd5b5061042e612926565b348015610a0d57600080fd5b506102fd600160a060020a036004351660243561299a565b348015610a3157600080fd5b5061042e600160a060020a03600435166129a5565b348015610a5257600080fd5b5061042e600160a060020a03600435166129eb565b348015610a7357600080fd5b50610314612a31565b600160a060020a0383161515610a9157600080fd5b811515610a9d57600080fd5b600160a060020a0381161515610ab257600080fd5b610abd838284612a40565b610ac78183612bfb565b610acf612a31565b610ad88261239f565b1115610ae357600080fd5b610aeb611501565b610af48261239f565b10158015610b085750610b06816129eb565b155b15610b2857610b1681612d42565b610b288167016345785d8a0000612e25565b610b31816129a5565b15610b3f57610b3f82612eb8565b505050565b60006002600060405160200180807f6c617374536e617073686f7454616b656e4174426c6f636b000000000000000081525060180190506040516020818303038152906040526040518082805190602001908083835b60208310610bb95780518252601f199092019160209182019101610b9a565b51815160209384036101000a600019018019909216911617905260408051929094018290039091208652850195909552929092016000205493505050505b90565b6000600a60006040516020018080600080516020614de8833981519152815250601001905060405160208183030381529060405260405180828051906020019080838360208310610bb95780518252601f199092019160209182019101610b9a565b6000600a60006040516020018080600080516020614e4883398151915281525060110190506040516020818303038152906040526040518082805190602001908083835b60208310610cbf5780518252601f199092019160209182019101610ca0565b51815160209384036101000a60001901801990921691161790526040805192909401829003909120865285019590955292909201600020805490935085925082109050610d0857fe5b600091825260209091200154600160a060020a031692915050565b6060600a60008360405160200180807f736e617073686f74000000000000000000000000000000000000000000000000815250600801828152602001807f61646472657373657300000000000000000000000000000000000000000000008152506009019150506040516020818303038152906040526040518082805190602001908083835b60208310610dc85780518252601f199092019160209182019101610da9565b51815160209384036101000a600019018019909216911617905260408051929094018290039091208652858101969096525092830160002080548451818702810187019095528085529394909392508401905082828015610e5257602002820191906000526020600020905b8154600160a060020a03168152600190910190602001808311610e34575b50505050509050919050565b6004600060405160200180807f6f776e657200000000000000000000000000000000000000000000000000000081525060050190506040516020818303038152906040526040518082805190602001908083835b60208310610ed15780518252601f199092019160209182019101610eb2565b51815160209384036101000a6000190180199092169116179052604080519290940182900390912086528501959095529290920160002054600160a060020a031633149250610f2291505057600080fd5b600160a060020a0381161515610f3757600080fd5b6006600060405160200180807f77617350726f787953746f72616765536574000000000000000000000000000081525060120190506040516020818303038152906040526040518082805190602001908083835b60208310610faa5780518252601f199092019160209182019101610f8b565b51815160209384036101000a600019018019909216911617905260408051929094018290039091208652850195909552929092016000205460ff16159250610ff491505057600080fd5b806004600060405160200180807f70726f787953746f726167650000000000000000000000000000000000000000815250600c0190506040516020818303038152906040526040518082805190602001908083835b602083106110685780518252601f199092019160209182019101611049565b51815160209384036101000a600019018019909216911617905260408051929094018290039091208652858101969096525092830160009081208054600160a060020a031916600160a060020a039790971696909617909555505080517f77617350726f787953746f7261676553657400000000000000000000000000008184015281516012818303018152603290910191829052805160019460069490939182918401908083835b602083106111305780518252601f199092019160209182019101611111565b51815160209384036101000a60001901801990921691161790526040805192909401829003909120865285019590955292909201600020805460ff19169415159490941790935550505050565b67016345785d8a000090565b6000805b611195610bfa565b8110156111cf576111a581611f68565b600160a060020a031683600160a060020a031614156111c757600191506111d4565b60010161118d565b600091505b50919050565b60408051600080516020614ee8833981519152602080830191909152606060020a600160a060020a038087168202602f85015285160260438301528251603781840301815260579092019283905281516000936002938593909282918401908083835b6020831061125c5780518252601f19909201916020918201910161123d565b51815160209384036101000a60001901801990921691161790526040805192909401829003909120865285019590955292909201600020549695505050505050565b600081565b6000600a60006040516020018080600080516020614e48833981519152815250601101905060405160208183030381529060405260405180828051906020019080838360208310610bb95780518252601f199092019160209182019101610b9a565b6000600a600060405160200180807f6e657756616c696461746f725365740000000000000000000000000000000000815250600f01905060405160208183030381529060405260405180828051906020019080838360208310610bb95780518252601f199092019160209182019101610b9a565b670de0b6b3a764000081565b611390338233612fbe565b50565b60006006600060405160200180807f6973496e697469616c697a656400000000000000000000000000000000000000815250600d0190506040516020818303038152906040526040518082805190602001908083835b602083106114085780518252601f1990920191602091820191016113e9565b51815160209384036101000a600019018019909216911617905260408051929094018290039091208652850195909552929092016000205460ff16949350505050565b611456333433610a7c565b565b6000600a60006040516020018080600080516020614ec8833981519152815250601101905060405160208183030381529060405260405180828051906020019080838360208310610bb95780518252601f199092019160209182019101610b9a565b6114c3336129a5565b15156114ce57600080fd5b670de0b6b3a76400008111156114e357600080fd5b6114eb61117d565b8110156114f757600080fd5b6113903382612e25565b69152d02c7e14af680000090565b6000600a60006040516020018080600080516020614ec8833981519152815250601101905060405160208183030381529060405260405180828051906020019080838360208310610cbf5780518252601f199092019160209182019101610ca0565b611390333483610a7c565b6060600a600060405160200180807f6e657756616c696461746f725365740000000000000000000000000000000000815250600f0190506040516020818303038152906040526040518082805190602001908083835b602083106115f15780518252601f1990920191602091820191016115d2565b51815160209384036101000a60001901801990921691161790526040805192909401829003909120865285810196909652509283016000208054845181870281018701909552808552939490939250840190508282801561167b57602002820191906000526020600020905b8154600160a060020a0316815260019091019060200180831161165d575b5050505050905090565b6060600a60006040516020018080600080516020614de88339815191528152506010019050604051602081830303815290604052604051808280519060200190808383602083106115f15780518252601f1990920191602091820191016115d2565b60608060608060008060006116fb89611e72565b94508451604051908082528060200260200182016040528015611728578160200160208202803883390190505b509350611744611736611501565b61173f8b61239f565b6130d8565b92505b84518210156117d65761176361175d8a846126ec565b8a6111da565b90506117b3670de0b6b3a764000061179b61177d8c61216f565b670de0b6b3a7640000036117a78761179b8e8863ffffffff6130f116565b9063ffffffff61311f16565b9063ffffffff6130f116565b84838151811015156117c157fe5b60209081029091010152600190910190611747565b50929791965090945050505050565b603281565b6117f3336129a5565b15156117fe57600080fd5b61180733611189565b1561181157600080fd5b61145633613142565b61182333611189565b151561182e57600080fd5b611836612321565b61183f33612892565b111561184a57600080fd5b61145633613154565b610bb881565b6004600060405160200180807f53595354454d5f41444452455353000000000000000000000000000000000000815250600e0190506040516020818303038152906040526040518082805190602001908083835b602083106118cc5780518252601f1990920191602091820191016118ad565b51815160209384036101000a6000190180199092169116179052604080519290940182900390912086528501959095529290920160002054600160a060020a03163314925061191d91505057600080fd5b611925611ef4565b1561192f57600080fd5b6000611939611305565b11156119c85761194f61194a61157c565b613190565b7f8564cd629b15f47dc310d45bcbfc9bcf5420b0d51bf0659a16c67f91d2763253611978612257565b60408051602080825283518183015283519192839290830191858101910280838360005b838110156119b457818101518382015260200161199c565b505050509050019250505060405180910390a15b61145660016132e3565b603290565b600060026000836040516020018080600080516020614f08833981519152815250600b0182600160a060020a0316600160a060020a0316606060020a0281526014019150506040516020818303038152906040526040518082805190602001908083835b60208310611a5a5780518252601f199092019160209182019101611a3b565b51815160209384036101000a600019018019909216911617905260408051929094018290039091208652850195909552929092016000205495945050505050565b600060026000836040516020018080600080516020614e28833981519152815250600c0182600160a060020a0316600160a060020a0316606060020a02815260140191505060405160208183030381529060405260405180828051906020019080838360208310611a5a5780518252601f199092019160209182019101611a3b565b612d0081565b6060611b2d6127d4565b600160a060020a031663f89d40866040518163ffffffff1660e060020a028152600401602060405180830381600087803b158015611b6a57600080fd5b505af1158015611b7e573d6000803e3d6000fd5b505050506040513d6020811015611b9457600080fd5b5051600160a060020a03163314611baa57600080fd5b611bb382613356565b611bbb613486565b15611e3f57611bc86127d4565b600160a060020a0316631986d3766040518163ffffffff1660e060020a028152600401602060405180830381600087803b158015611c0557600080fd5b505af1158015611c19573d6000803e3d6000fd5b505050506040513d6020811015611c2f57600080fd5b5051600160a060020a031663bbac62c8611c47612257565b6040518263ffffffff1660e060020a0281526004018080602001828103825283818151815260200191508051906020019060200280838360005b83811015611c99578181015183820152602001611c81565b5050505090500192505050600060405180830381600087803b158015611cbe57600080fd5b505af1158015611cd2573d6000803e3d6000fd5b50505050611cde613498565b611cee611ce9612257565b613609565b611cf66122bf565b9050600081511115611d0b57611d0b816136ee565b6000611d15611305565b1115611d5957611d2560006132e3565b611d2f60016137b0565b6040517fad8a61077dff62d25ea1bf7cf1af88e1b48075c3d497d494ac9b129b73b0d37c90600090a15b611d616127d4565b600160a060020a031663f89d40866040518163ffffffff1660e060020a028152600401602060405180830381600087803b158015611d9e57600080fd5b505af1158015611db2573d6000803e3d6000fd5b505050506040513d6020811015611dc857600080fd5b5051604080517fb1f0c8e10000000000000000000000000000000000000000000000000000000081529051600160a060020a039092169163b1f0c8e19160048082019260009290919082900301818387803b158015611e2657600080fd5b505af1158015611e3a573d6000803e3d6000fd5b505050505b5050565b600581565b600090565b6000611e6d6001611e61600261179b611458565b9063ffffffff61382316565b905090565b6060600a6000836040516020018080600080516020614e08833981519152815250600a0182600160a060020a0316600160a060020a0316606060020a02815260140191505060405160208183030381529060405260405180828051906020019080838360208310610dc85780518252601f199092019160209182019101610da9565b60006006600060405160200180807f697346696e616c697a6564000000000000000000000000000000000000000000815250600b019050604051602081830303815290604052604051808280519060200190808383602083106114085780518252601f1990920191602091820191016113e9565b6000600a60006040516020018080600080516020614de8833981519152815250601001905060405160208183030381529060405260405180828051906020019080838360208310610cbf5780518252601f199092019160209182019101610ca0565b67016345785d8a000081565b60006002600060405160200180807f63757272656e744379636c655374617274426c6f636b00000000000000000000815250601601905060405160208183030381529060405260405180828051906020019080838360208310610bb95780518252601f199092019160209182019101610b9a565b612053336129a5565b151561205e57600080fd5b612066612926565b151561207157600080fd5b600061207b611305565b1161208557600080fd5b6000194301407f55252fa6eee4741b4e24a74a70e9c11fd2c2281df8d6ea13126ff845f7825c896120b461157c565b60408051602080825283518183015283519192839290830191858101910280838360005b838110156120f05781810151838201526020016120d8565b505050509050019250505060405180910390a261145660006137b0565b6000600260006040516020018080600080516020614ea8833981519152815250601001905060405160208183030381529060405260405180828051906020019080838360208310610bb95780518252601f199092019160209182019101610b9a565b6000600260008360405160200180807f76616c696461746f724665650000000000000000000000000000000000000000815250600c0182600160a060020a0316600160a060020a0316606060020a02815260140191505060405160208183030381529060405260405180828051906020019080838360208310611a5a5780518252601f199092019160209182019101611a3b565b6000805b612210846125f6565b81101561224b5761222184826126ec565b600160a060020a031683600160a060020a031614156122435760019150612250565b600101612207565b600091505b5092915050565b6060600a60006040516020018080600080516020614ec88339815191528152506011019050604051602081830303815290604052604051808280519060200190808383602083106115f15780518252601f1990920191602091820191016115d2565b612d0090565b6060600a60006040516020018080600080516020614e488339815191528152506011019050604051602081830303815290604052604051808280519060200190808383602083106115f15780518252601f1990920191602091820191016115d2565b60006002600060405160200180807f63757272656e744379636c65456e64426c6f636b000000000000000000000000815250601401905060405160208183030381529060405260405180828051906020019080838360208310610bb95780518252601f199092019160209182019101610b9a565b6060611e6d612257565b600060026000836040516020018080600080516020614e88833981519152815250600b0182600160a060020a0316600160a060020a0316606060020a02815260140191505060405160208183030381529060405260405180828051906020019080838360208310611a5a5780518252601f199092019160209182019101611a3b565b6004600060405160200180807f6f776e657200000000000000000000000000000000000000000000000000000081525060050190506040516020818303038152906040526040518082805190602001908083835b602083106124945780518252601f199092019160209182019101612475565b51815160209384036101000a6000190180199092169116179052604080519290940182900390912086528501959095529290920160002054600160a060020a0316331492506124e591505057600080fd5b6124ed611393565b156124f757600080fd5b61251473fffffffffffffffffffffffffffffffffffffffe613835565b61251c613498565b600160a060020a038116151561253a5761253533613905565b612543565b61254381613905565b61254d60016132e3565b6113906001613965565b6a0422ca8b0a00a42500000081565b69152d02c7e14af680000081565b600060026000836040516020018080600080516020614e68833981519152815250600b0182600160a060020a0316600160a060020a0316606060020a02815260140191505060405160208183030381529060405260405180828051906020019080838360208310611a5a5780518252601f199092019160209182019101611a3b565b6000600a6000836040516020018080600080516020614e08833981519152815250600a0182600160a060020a0316600160a060020a0316606060020a02815260140191505060405160208183030381529060405260405180828051906020019080838360208310611a5a5780518252601f199092019160209182019101611a3b565b60006002600060405160200180807f6e657874536e617073686f744964000000000000000000000000000000000000815250600e01905060405160208183030381529060405260405180828051906020019080838360208310610bb95780518252601f199092019160209182019101610b9a565b6000600a6000846040516020018080600080516020614e08833981519152815250600a0182600160a060020a0316600160a060020a0316606060020a0281526014019150506040516020818303038152906040526040518082805190602001908083835b6020831061276f5780518252601f199092019160209182019101612750565b51815160209384036101000a600019018019909216911617905260408051929094018290039091208652850195909552929092016000208054909350859250821090506127b857fe5b600091825260209091200154600160a060020a03169392505050565b60006004600060405160200180807f70726f787953746f726167650000000000000000000000000000000000000000815250600c0190506040516020818303038152906040526040518082805190602001908083835b602083106128495780518252601f19909201916020918201910161282a565b51815160209384036101000a6000190180199092169116179052604080519290940182900390912086528501959095529290920160002054600160a060020a0316949350505050565b6000600260008360405160200180807f72656c65617365426c6f636b0000000000000000000000000000000000000000815250600c0182600160a060020a0316600160a060020a0316606060020a02815260140191505060405160208183030381529060405260405180828051906020019080838360208310611a5a5780518252601f199092019160209182019101611a3b565b60006006600060405160200180807f73686f756c64456d6974496e6974696174654368616e676500000000000000008152506018019050604051602081830303815290604052604051808280519060200190808383602083106114085780518252601f1990920191602091820191016113e9565b611e3f338284612fbe565b6000805b6129b1611458565b8110156111cf576129c18161150f565b600160a060020a031683600160a060020a031614156129e357600191506111d4565b6001016129a9565b6000805b6129f76112a3565b8110156111cf57612a0781610c5c565b600160a060020a031683600160a060020a03161415612a2957600191506111d4565b6001016129ef565b6a0422ca8b0a00a42500000090565b60408051600080516020614ee8833981519152602080830191909152606060020a600160a060020a038088168202602f8501528616026043830152825160378184030181526057909201928390528151612b0a93859360029360009391929182918401908083835b60208310612ac75780518252601f199092019160209182019101612aa8565b51815160209384036101000a6000190180199092169116179052604080519290940182900390912086528501959095529290920160002054939250506138239050565b60408051600080516020614ee8833981519152602080830191909152606060020a600160a060020a038089168202602f850152871602604383015282516037818403018152605790920192839052815160029360009392909182918401908083835b60208310612b8b5780518252601f199092019160209182019101612b6c565b51815160209384036101000a6000190180199092169116179052604080519290940182900390912086528501959095529290920160002093909355505050600160a060020a0382811690841614801590612bec5750612bea8284612203565b155b15610b3f57610b3f83836139d8565b612c7f8160026000856040516020018080600080516020614e88833981519152815250600b0182600160a060020a0316600160a060020a0316606060020a02815260140191505060405160208183030381529060405260405180828051906020019080838360208310612ac75780518252601f199092019160209182019101612aa8565b60026000846040516020018080600080516020614e88833981519152815250600b0182600160a060020a0316600160a060020a0316606060020a0281526014019150506040516020818303038152906040526040518082805190602001908083835b60208310612d005780518252601f199092019160209182019101612ce1565b51815160209384036101000a60001901801990921691161790526040805192909401829003909120865285019590955292909201600020939093555050505050565b612d4b81611189565b15612d5557600080fd5b600a60006040516020018080600080516020614e4883398151915281525060110190506040516020818303038152906040526040518082805190602001908083835b60208310612db65780518252601f199092019160209182019101612d97565b51815160209384036101000a600019018019909216911617905260408051929094018290039091208652858101969096525092909201600090812080546001810182559082529390209092018054600160a060020a031916600160a060020a0394909416939093179092555050565b80600260008460405160200180807f76616c696461746f724665650000000000000000000000000000000000000000815250600c0182600160a060020a0316600160a060020a0316606060020a02815260140191505060405160208183030381529060405260405180828051906020019080838360208310612d005780518252601f199092019160209182019101612ce1565b612f1c81600260006040516020018080600080516020614ea8833981519152815250601001905060405160208183030381529060405260405180828051906020019080838360208310612ac75780518252601f199092019160209182019101612aa8565b600260006040516020018080600080516020614ea883398151915281525060100190506040516020818303038152906040526040518082805190602001908083835b60208310612f7d5780518252601f199092019160209182019101612f5e565b51815160209384036101000a600019018019909216911617905260408051929094018290039091208652850195909552929092016000209390935550505050565b6000600160a060020a0382161515612fd557600080fd5b60008311612fe257600080fd5b612feb8261239f565b831115612ff757600080fd5b61300184836111da565b83111561300d57600080fd5b613016826129a5565b9050613020611501565b6130398461302d8561239f565b9063ffffffff613ac916565b1080156130435750805b156130565761305182613ae0565b6130d2565b613061848385613cde565b61306b8284613f30565b801561307a5761307a83613fb4565b613082611501565b61308b8361239f565b101561309a5761309a82613ae0565b604051600160a060020a0385169084156108fc029085906000818181858888f193505050501580156130d0573d6000803e3d6000fd5b505b50505050565b6000818310156130e857816130ea565b825b9392505050565b6000808315156131045760009150612250565b5082820282848281151561311457fe5b04146130ea57600080fd5b60008080831161312e57600080fd5b828481151561313957fe5b04949350505050565b61314b81613ae0565b61139081614018565b61315d81614078565b613165611501565b61316e8261239f565b101580156131825750613180816129eb565b155b156113905761139081612d42565b60008080805b845183101561322a576131bf85848151811015156131b057fe5b9060200190602002015161239f565b915081840193506131e685848151811015156131d757fe5b9060200190602002015161216f565b90506131f061117d565b81101561321f5761321f858481518110151561320857fe5b9060200190602002015161321a61117d565b612e25565b600190920191613196565b6132338461421e565b84600a60006040516020018080600080516020614ec883398151915281525060110190506040516020818303038152906040526040518082805190602001908083835b602083106132955780518252601f199092019160209182019101613276565b51815160001960209485036101000a01908116901991909116179052604080519490920184900390932086528583019690965250929093016000208451611e3a959194509201919050614d20565b806006600060405160200180807f697346696e616c697a6564000000000000000000000000000000000000000000815250600b019050604051602081830303815290604052604051808280519060200190808383602083106111305780518252601f199092019160209182019101611111565b60026000826040516020018080600080516020614e28833981519152815250600c0182600160a060020a0316600160a060020a0316606060020a0281526014019150506040516020818303038152906040526040518082805190602001908083835b602083106133d75780518252601f1990920191602091820191016133b8565b51815160209384036101000a60001901801990921691161790526040805192909401829003909120865285810196909652509283016000908120548451600080516020614e2883398151915281880152600160a060020a038816606060020a02602c8201528551808203880181529086019586905280516001909201966002969395509093508291848201918190849084908310612f7d5780518252601f199092019160209182019101612f5e565b6000613490612321565b431015905090565b436002600060405160200180807f63757272656e744379636c655374617274426c6f636b0000000000000000000081525060160190506040516020818303038152906040526040518082805190602001908083835b6020831061350c5780518252601f1990920191602091820191016134ed565b51815160209384036101000a60001901801990921691161790526040805192909401829003909120865285019590955292909201600020939093555061355491506122b99050565b43016002600060405160200180807f63757272656e744379636c65456e64426c6f636b00000000000000000000000081525060140190506040516020818303038152906040526040518082805190602001908083835b602083106135c95780518252601f1990920191602091820191016135aa565b51815160209384036101000a6000190180199092169116179052604080519290940182900390912086528501959095529290920160002093909355505050565b60008061362561271061179b855161179b610bb86117a76122b9565b9150600090505b8251811015610b3f5781613656848381518110151561364757fe5b90602001906020020151611a9b565b10156136815761367c838281518110151561366d57fe5b9060200190602002015161427f565b6136c6565b6136a1838281518110151561369257fe5b906020019060200201516119d7565b156136c6576136c683828151811015156136b757fe5b906020019060200201516142a3565b6136e683828151811015156136d757fe5b906020019060200201516144e2565b60010161362c565b80600a600060405160200180807f6e657756616c696461746f725365740000000000000000000000000000000000815250600f0190506040516020818303038152906040526040518082805190602001908083835b602083106137625780518252601f199092019160209182019101613743565b51815160001960209485036101000a01908116901991909116179052604080519490920184900390932086528583019690965250929093016000208451611e3f959194509201919050614d20565b806006600060405160200180807f73686f756c64456d6974496e6974696174654368616e676500000000000000008152506018019050604051602081830303815290604052604051808280519060200190808383602083106111305780518252601f199092019160209182019101611111565b6000828201838110156130ea57600080fd5b806004600060405160200180807f53595354454d5f41444452455353000000000000000000000000000000000000815250600e0190506040516020818303038152906040526040518082805190602001908083835b602083106138a95780518252601f19909201916020918201910161388a565b51815160209384036101000a600019018019909216911617905260408051929094018290039091208652850195909552929092016000208054600160a060020a031916600160a060020a03959095169490941790935550505050565b600a60006040516020018080600080516020614ec8833981519152815250601101905060405160208183030381529060405260405180828051906020019080838360208310612db65780518252601f199092019160209182019101612d97565b806006600060405160200180807f6973496e697469616c697a656400000000000000000000000000000000000000815250600d019050604051602081830303815290604052604051808280519060200190808383602083106111305780518252601f199092019160209182019101611111565b600a6000826040516020018080600080516020614e08833981519152815250600a0182600160a060020a0316600160a060020a0316606060020a0281526014019150506040516020818303038152906040526040518082805190602001908083835b60208310613a595780518252601f199092019160209182019101613a3a565b51815160209384036101000a600019018019909216911617905260408051929094018290039091208652858101969096525092909201600090812080546001810182559082529390209092018054600160a060020a031916600160a060020a039590951694909417909355505050565b60008083831115613ad957600080fd5b5050900390565b6000808080805b613aef6112a3565b831015613b2f57613aff83610c5c565b600160a060020a031686600160a060020a03161415613b245782935060019450613b2f565b600190920191613ae7565b8415611e3a576001613b3f6112a3565b039150613b4b82610c5c565b9050600160a060020a03811615613b6657613b668482614564565b600a60006040516020018080600080516020614e4883398151915281525060110190506040516020818303038152906040526040518082805190602001908083835b60208310613bc75780518252601f199092019160209182019101613ba8565b51815160209384036101000a60001901801990921691161790526040805192909401829003909120865285019590955292909201600020805490935085925082109050613c1057fe5b600091825260208083209091018054600160a060020a031916905560408051600080516020614e4883398151915281840152815180820360110181526031909101918290528051600a94939192918291908401908083835b60208310613c875780518252601f199092019160209182019101613c68565b51815160001960209485036101000a81019182169119929092161790915260408051959093018590039094208752860196909652509290930160002080549350613cd5929091508301614d85565b50505050505050565b60408051600080516020614ee8833981519152602080830191909152606060020a600160a060020a038088168202602f8501528616026043830152825160378184030181526057909201928390528151613da893859360029360009391929182918401908083835b60208310613d655780518252601f199092019160209182019101613d46565b51815160209384036101000a600019018019909216911617905260408051929094018290039091208652850195909552929092016000205493925050613ac99050565b60408051600080516020614ee8833981519152602080830191909152606060020a600160a060020a038089168202602f850152871602604383015282516037818403018152605790920192839052815160029360009392909182918401908083835b60208310613e295780518252601f199092019160209182019101613e0a565b51815160001960209485036101000a0190811690199190911617905260408051949092018490039093208652858301969096525092840160009081209590955550508151600080516020614ee883398151915281830152606060020a600160a060020a038089168202602f84015287160260438201528251603781830301815260579091019283905280516002949391928291908401908083835b60208310613ee35780518252601f199092019160209182019101613ec4565b51815160209384036101000a600019018019909216911617905260408051929094018290039091208652850195909552929092016000205415159250610b3f91505057610b3f8383614641565b612c7f8160026000856040516020018080600080516020614e88833981519152815250600b0182600160a060020a0316600160a060020a0316606060020a02815260140191505060405160208183030381529060405260405180828051906020019080838360208310613d655780518252601f199092019160209182019101613d46565b612f1c81600260006040516020018080600080516020614ea8833981519152815250601001905060405160208183030381529060405260405180828051906020019080838360208310613d655780518252601f199092019160209182019101613d46565b600a60006040516020018080600080516020614de8833981519152815250601001905060405160208183030381529060405260405180828051906020019080838360208310612db65780518252601f199092019160209182019101612d97565b6000808080805b614087610bfa565b8310156140c75761409783611f68565b600160a060020a031686600160a060020a031614156140bc57829350600194506140c7565b60019092019161407f565b8415611e3a5760016140d7610bfa565b0391506140e382611f68565b9050600160a060020a038116156140fe576140fe848261487a565b600a60006040516020018080600080516020614de883398151915281525060100190506040516020818303038152906040526040518082805190602001908083835b6020831061415f5780518252601f199092019160209182019101614140565b51815160209384036101000a600019018019909216911617905260408051929094018290039091208652850195909552929092016000208054909350859250821090506141a857fe5b600091825260208083209091018054600160a060020a031916905560408051600080516020614de883398151915281840152815180820360100181526030909101918290528051600a949391929182919084019080838360208310613c875780518252601f199092019160209182019101613c68565b80600260006040516020018080600080516020614ea8833981519152815250601001905060405160208183030381529060405260405180828051906020019080838360208310612f7d5780518252601f199092019160209182019101612f5e565b61428881613ae0565b61429181614018565b61429a816148db565b61139081614b1e565b60026000826040516020018080600080516020614e68833981519152815250600b0182600160a060020a0316600160a060020a0316606060020a0281526014019150506040516020818303038152906040526040518082805190602001908083835b602083106143245780518252601f199092019160209182019101614305565b51815160209384036101000a60001901801990921691161790526040805192909401829003909120865285810196909652509283016000908120548451600080516020614e6883398151915281880152600160a060020a038816606060020a02602b8201528551808203601f018152603f9091019586905280516001909201966002969395509093508291908401908083835b602083106143d65780518252601f1990920191602091820191016143b7565b51815160209384036101000a600019018019909216911617905260408051929094018290039091208652858101969096525092830160009081209590955550508051600080516020614e6883398151915281840152600160a060020a038516606060020a02602b8201528151808203601f018152603f90910191829052805160329460029490939182918401908083835b602083106144865780518252601f199092019160209182019101614467565b6001836020036101000a038019825116818451168082178552505050505050905001915050604051809103902060001916600019168152602001908152602001600020541115611390576144d981614b1e565b61139081614ba0565b600060026000836040516020018080600080516020614e28833981519152815250600c0182600160a060020a0316600160a060020a0316606060020a02815260140191505060405160208183030381529060405260405180828051906020019080838360208310612f7d5780518252601f199092019160209182019101612f5e565b80600a60006040516020018080600080516020614e4883398151915281525060110190506040516020818303038152906040526040518082805190602001908083835b602083106145c65780518252601f1990920191602091820191016145a7565b51815160209384036101000a6000190180199092169116179052604080519290940182900390912086528501959095529290920160002080549093508692508210905061460f57fe5b9060005260206000200160006101000a815481600160a060020a030219169083600160a060020a031602179055505050565b6000808080805b614651866125f6565b8310156146925761466286846126ec565b600160a060020a031687600160a060020a031614156146875782935060019450614692565b600190920191614648565b8415613cd55760016146a3876125f6565b0391506146b086836126ec565b9050600160a060020a038116156146cc576146cc868583614c22565b600a6000876040516020018080600080516020614e08833981519152815250600a0182600160a060020a0316600160a060020a0316606060020a0281526014019150506040516020818303038152906040526040518082805190602001908083835b6020831061474d5780518252601f19909201916020918201910161472e565b51815160209384036101000a6000190180199092169116179052604080519290940182900390912086528501959095529290920160002080549093508592508210905061479657fe5b600091825260208083209091018054600160a060020a031916905560408051600080516020614e0883398151915281840152606060020a600160a060020a038b1602602a8201528151601e818303018152603e909101918290528051600a94939192918291908401908083835b602083106148225780518252601f199092019160209182019101614803565b51815160001960209485036101000a81019182169119929092161790915260408051959093018590039094208752860196909652509290930160002080549350614870929091508301614d85565b5050505050505050565b80600a60006040516020018080600080516020614de88339815191528152506010019050604051602081830303815290604052604051808280519060200190808383602083106145c65780518252601f1990920191602091820191016145a7565b600060026000836040516020018080600080516020614f08833981519152815250600b0182600160a060020a0316600160a060020a0316606060020a0281526014019150506040516020818303038152906040526040518082805190602001908083835b6020831061495e5780518252601f19909201916020918201910161493f565b6001836020036101000a0380198251168184511680821785525050505050509050019150506040518091039020600019166000191681526020019081526020016000205490506149c0600161302d6149b8846117a76122b9565b611e61612321565b600260008460405160200180807f72656c65617365426c6f636b0000000000000000000000000000000000000000815250600c0182600160a060020a0316600160a060020a0316606060020a0281526014019150506040516020818303038152906040526040518082805190602001908083835b60208310614a535780518252601f199092019160209182019101614a34565b51815160209384036101000a60001901801990921691161790526040805192909401829003909120865285019590955292909201600020939093555050600582119050611e3f578060010160026000846040516020018080600080516020614f08833981519152815250600b0182600160a060020a0316600160a060020a0316606060020a02815260140191505060405160208183030381529060405260405180828051906020019080838360208310612d005780518252601f199092019160209182019101612ce1565b600060026000836040516020018080600080516020614e68833981519152815250600b0182600160a060020a0316600160a060020a0316606060020a02815260140191505060405160208183030381529060405260405180828051906020019080838360208310612f7d5780518252601f199092019160209182019101612f5e565b600060026000836040516020018080600080516020614f08833981519152815250600b0182600160a060020a0316600160a060020a0316606060020a02815260140191505060405160208183030381529060405260405180828051906020019080838360208310612f7d5780518252601f199092019160209182019101612f5e565b80600a6000856040516020018080600080516020614e08833981519152815250600a0182600160a060020a0316600160a060020a0316606060020a0281526014019150506040516020818303038152906040526040518082805190602001908083835b60208310614ca45780518252601f199092019160209182019101614c85565b51815160209384036101000a60001901801990921691161790526040805192909401829003909120865285019590955292909201600020805490935086925082109050614ced57fe5b9060005260206000200160006101000a815481600160a060020a030219169083600160a060020a03160217905550505050565b828054828255906000526020600020908101928215614d75579160200282015b82811115614d755782518254600160a060020a031916600160a060020a03909116178255602090920191600190910190614d40565b50614d81929150614da9565b5090565b815481835581811115610b3f57600083815260209020610b3f918101908301614dcd565b610bf791905b80821115614d81578054600160a060020a0319168155600101614daf565b610bf791905b80821115614d815760008155600101614dd356006a61696c656456616c696461746f72730000000000000000000000000000000064656c656761746f727300000000000000000000000000000000000000000000626c6f636b436f756e746572000000000000000000000000000000000000000070656e64696e6756616c696461746f7273000000000000000000000000000000737472696b6552657365740000000000000000000000000000000000000000007374616b65416d6f756e74000000000000000000000000000000000000000000746f74616c5374616b65416d6f756e740000000000000000000000000000000063757272656e7456616c696461746f727300000000000000000000000000000064656c656761746564416d6f756e740000000000000000000000000000000000737472696b65436f756e74000000000000000000000000000000000000000000a165627a7a723058206144be34ab249345143ad13e3c3a339748e75889fcf25a00f57a9c2060b850800029",
  "linkReferences": {},
  "deployedLinkReferences": {}
}